{
  "_format": "hh-sol-artifact-1",
  "contractName": "France",
  "sourceName": "contracts/Tokens.sol",
  "abi": [
    {
      "inputs": [],
      "stateMutability": "nonpayable",
      "type": "constructor"
    },
    {
      "anonymous": false,
      "inputs": [
        {
          "indexed": true,
          "internalType": "address",
          "name": "owner",
          "type": "address"
        },
        {
          "indexed": true,
          "internalType": "address",
          "name": "spender",
          "type": "address"
        },
        {
          "indexed": false,
          "internalType": "uint256",
          "name": "value",
          "type": "uint256"
        }
      ],
      "name": "Approval",
      "type": "event"
    },
    {
      "anonymous": false,
      "inputs": [
        {
          "indexed": true,
          "internalType": "address",
          "name": "from",
          "type": "address"
        },
        {
          "indexed": true,
          "internalType": "address",
          "name": "to",
          "type": "address"
        },
        {
          "indexed": false,
          "internalType": "uint256",
          "name": "value",
          "type": "uint256"
        }
      ],
      "name": "Transfer",
      "type": "event"
    },
    {
      "inputs": [
        {
          "internalType": "address",
          "name": "owner",
          "type": "address"
        },
        {
          "internalType": "address",
          "name": "spender",
          "type": "address"
        }
      ],
      "name": "allowance",
      "outputs": [
        {
          "internalType": "uint256",
          "name": "",
          "type": "uint256"
        }
      ],
      "stateMutability": "view",
      "type": "function"
    },
    {
      "inputs": [
        {
          "internalType": "address",
          "name": "spender",
          "type": "address"
        },
        {
          "internalType": "uint256",
          "name": "amount",
          "type": "uint256"
        }
      ],
      "name": "approve",
      "outputs": [
        {
          "internalType": "bool",
          "name": "",
          "type": "bool"
        }
      ],
      "stateMutability": "nonpayable",
      "type": "function"
    },
    {
      "inputs": [
        {
          "internalType": "address",
          "name": "account",
          "type": "address"
        }
      ],
      "name": "balanceOf",
      "outputs": [
        {
          "internalType": "uint256",
          "name": "",
          "type": "uint256"
        }
      ],
      "stateMutability": "view",
      "type": "function"
    },
    {
      "inputs": [],
      "name": "decimals",
      "outputs": [
        {
          "internalType": "uint8",
          "name": "",
          "type": "uint8"
        }
      ],
      "stateMutability": "view",
      "type": "function"
    },
    {
      "inputs": [
        {
          "internalType": "address",
          "name": "spender",
          "type": "address"
        },
        {
          "internalType": "uint256",
          "name": "subtractedValue",
          "type": "uint256"
        }
      ],
      "name": "decreaseAllowance",
      "outputs": [
        {
          "internalType": "bool",
          "name": "",
          "type": "bool"
        }
      ],
      "stateMutability": "nonpayable",
      "type": "function"
    },
    {
      "inputs": [
        {
          "internalType": "address",
          "name": "spender",
          "type": "address"
        },
        {
          "internalType": "uint256",
          "name": "addedValue",
          "type": "uint256"
        }
      ],
      "name": "increaseAllowance",
      "outputs": [
        {
          "internalType": "bool",
          "name": "",
          "type": "bool"
        }
      ],
      "stateMutability": "nonpayable",
      "type": "function"
    },
    {
      "inputs": [
        {
          "internalType": "address",
          "name": "_address",
          "type": "address"
        },
        {
          "internalType": "uint256",
          "name": "_amount",
          "type": "uint256"
        }
      ],
      "name": "mint",
      "outputs": [],
      "stateMutability": "nonpayable",
      "type": "function"
    },
    {
      "inputs": [],
      "name": "name",
      "outputs": [
        {
          "internalType": "string",
          "name": "",
          "type": "string"
        }
      ],
      "stateMutability": "view",
      "type": "function"
    },
    {
      "inputs": [],
      "name": "setSmartContractOwner",
      "outputs": [],
      "stateMutability": "nonpayable",
      "type": "function"
    },
    {
      "inputs": [],
      "name": "smartContractOwner",
      "outputs": [
        {
          "internalType": "address",
          "name": "",
          "type": "address"
        }
      ],
      "stateMutability": "view",
      "type": "function"
    },
    {
      "inputs": [],
      "name": "symbol",
      "outputs": [
        {
          "internalType": "string",
          "name": "",
          "type": "string"
        }
      ],
      "stateMutability": "view",
      "type": "function"
    },
    {
      "inputs": [],
      "name": "totalSupply",
      "outputs": [
        {
          "internalType": "uint256",
          "name": "",
          "type": "uint256"
        }
      ],
      "stateMutability": "view",
      "type": "function"
    },
    {
      "inputs": [
        {
          "internalType": "address",
          "name": "to",
          "type": "address"
        },
        {
          "internalType": "uint256",
          "name": "amount",
          "type": "uint256"
        }
      ],
      "name": "transfer",
      "outputs": [
        {
          "internalType": "bool",
          "name": "",
          "type": "bool"
        }
      ],
      "stateMutability": "nonpayable",
      "type": "function"
    },
    {
      "inputs": [
        {
          "internalType": "address",
          "name": "from",
          "type": "address"
        },
        {
          "internalType": "address",
          "name": "to",
          "type": "address"
        },
        {
          "internalType": "uint256",
          "name": "amount",
          "type": "uint256"
        }
      ],
      "name": "transferFrom",
      "outputs": [
        {
          "internalType": "bool",
          "name": "",
          "type": "bool"
        }
      ],
      "stateMutability": "nonpayable",
      "type": "function"
    }
  ],
  "bytecode": "0x60806040526000600560006101000a81548160ff0219169083151502179055503480156200002c57600080fd5b506040518060400160405280600681526020017f4672616e636500000000000000000000000000000000000000000000000000008152506040518060400160405280600281526020017f46520000000000000000000000000000000000000000000000000000000000008152508160039080519060200190620000b19291906200029d565b508060049080519060200190620000ca9291906200029d565b5050506200010b33620000e26200011160201b60201c565b600a620000f091906200048d565b612710620000ff9190620005ca565b6200011a60201b60201c565b6200070c565b60006012905090565b600073ffffffffffffffffffffffffffffffffffffffff168273ffffffffffffffffffffffffffffffffffffffff1614156200018d576040517f08c379a0000000000000000000000000000000000000000000000000000000008152600401620001849062000385565b60405180910390fd5b620001a1600083836200029360201b60201c565b8060026000828254620001b59190620003d5565b92505081905550806000808473ffffffffffffffffffffffffffffffffffffffff1673ffffffffffffffffffffffffffffffffffffffff16815260200190815260200160002060008282546200020c9190620003d5565b925050819055508173ffffffffffffffffffffffffffffffffffffffff16600073ffffffffffffffffffffffffffffffffffffffff167fddf252ad1be2c89b69c2b068fc378daa952ba7f163c4a11628f55a4df523b3ef83604051620002739190620003a7565b60405180910390a36200028f600083836200029860201b60201c565b5050565b505050565b505050565b828054620002ab9062000642565b90600052602060002090601f016020900481019282620002cf57600085556200031b565b82601f10620002ea57805160ff19168380011785556200031b565b828001600101855582156200031b579182015b828111156200031a578251825591602001919060010190620002fd565b5b5090506200032a91906200032e565b5090565b5b80821115620003495760008160009055506001016200032f565b5090565b60006200035c601f83620003c4565b91506200036982620006e3565b602082019050919050565b6200037f816200062b565b82525050565b60006020820190508181036000830152620003a0816200034d565b9050919050565b6000602082019050620003be600083018462000374565b92915050565b600082825260208201905092915050565b6000620003e2826200062b565b9150620003ef836200062b565b9250827fffffffffffffffffffffffffffffffffffffffffffffffffffffffffffffffff0382111562000427576200042662000678565b5b828201905092915050565b6000808291508390505b600185111562000484578086048111156200045c576200045b62000678565b5b60018516156200046c5780820291505b80810290506200047c85620006d6565b94506200043c565b94509492505050565b60006200049a826200062b565b9150620004a78362000635565b9250620004d67fffffffffffffffffffffffffffffffffffffffffffffffffffffffffffffffff8484620004de565b905092915050565b600082620004f05760019050620005c3565b81620005005760009050620005c3565b816001811462000519576002811462000524576200055a565b6001915050620005c3565b60ff84111562000539576200053862000678565b5b8360020a91508482111562000553576200055262000678565b5b50620005c3565b5060208310610133831016604e8410600b8410161715620005945782820a9050838111156200058e576200058d62000678565b5b620005c3565b620005a3848484600162000432565b92509050818404811115620005bd57620005bc62000678565b5b81810290505b9392505050565b6000620005d7826200062b565b9150620005e4836200062b565b9250817fffffffffffffffffffffffffffffffffffffffffffffffffffffffffffffffff048311821515161562000620576200061f62000678565b5b828202905092915050565b6000819050919050565b600060ff82169050919050565b600060028204905060018216806200065b57607f821691505b60208210811415620006725762000671620006a7565b5b50919050565b7f4e487b7100000000000000000000000000000000000000000000000000000000600052601160045260246000fd5b7f4e487b7100000000000000000000000000000000000000000000000000000000600052602260045260246000fd5b60008160011c9050919050565b7f45524332303a206d696e7420746f20746865207a65726f206164647265737300600082015250565b611782806200071c6000396000f3fe608060405234801561001057600080fd5b50600436106100ea5760003560e01c806370a082311161008c57806398faf2cb1161006657806398faf2cb14610261578063a457c2d71461026b578063a9059cbb1461029b578063dd62ed3e146102cb576100ea565b806370a08231146101f557806395d89b411461022557806396ffa49914610243576100ea565b806323b872dd116100c857806323b872dd1461015b578063313ce5671461018b57806339509351146101a957806340c10f19146101d9576100ea565b806306fdde03146100ef578063095ea7b31461010d57806318160ddd1461013d575b600080fd5b6100f76102fb565b6040516101049190611121565b60405180910390f35b61012760048036038101906101229190610edc565b61038d565b6040516101349190611106565b60405180910390f35b6101456103b0565b6040516101529190611283565b60405180910390f35b61017560048036038101906101709190610e8d565b6103ba565b6040516101829190611106565b60405180910390f35b6101936103e9565b6040516101a0919061129e565b60405180910390f35b6101c360048036038101906101be9190610edc565b6103f2565b6040516101d09190611106565b60405180910390f35b6101f360048036038101906101ee9190610edc565b610429565b005b61020f600480360381019061020a9190610e28565b6104df565b60405161021c9190611283565b60405180910390f35b61022d610527565b60405161023a9190611121565b60405180910390f35b61024b6105b9565b60405161025891906110eb565b60405180910390f35b6102696105df565b005b61028560048036038101906102809190610edc565b610693565b6040516102929190611106565b60405180910390f35b6102b560048036038101906102b09190610edc565b61070a565b6040516102c29190611106565b60405180910390f35b6102e560048036038101906102e09190610e51565b61072d565b6040516102f29190611283565b60405180910390f35b60606003805461030a906113b3565b80601f0160208091040260200160405190810160405280929190818152602001828054610336906113b3565b80156103835780601f1061035857610100808354040283529160200191610383565b820191906000526020600020905b81548152906001019060200180831161036657829003601f168201915b5050505050905090565b6000806103986107b4565b90506103a58185856107bc565b600191505092915050565b6000600254905090565b6000806103c56107b4565b90506103d2858285610987565b6103dd858585610a13565b60019150509392505050565b60006012905090565b6000806103fd6107b4565b905061041e81858561040f858961072d565b61041991906112d5565b6107bc565b600191505092915050565b600560009054906101000a900460ff1680156104925750600560019054906101000a900473ffffffffffffffffffffffffffffffffffffffff1673ffffffffffffffffffffffffffffffffffffffff163373ffffffffffffffffffffffffffffffffffffffff16145b6104d1576040517f08c379a00000000000000000000000000000000000000000000000000000000081526004016104c8906111e3565b60405180910390fd5b6104db8282610c94565b5050565b60008060008373ffffffffffffffffffffffffffffffffffffffff1673ffffffffffffffffffffffffffffffffffffffff168152602001908152602001600020549050919050565b606060048054610536906113b3565b80601f0160208091040260200160405190810160405280929190818152602001828054610562906113b3565b80156105af5780601f10610584576101008083540402835291602001916105af565b820191906000526020600020905b81548152906001019060200180831161059257829003601f168201915b5050505050905090565b600560019054906101000a900473ffffffffffffffffffffffffffffffffffffffff1681565b60001515600560009054906101000a900460ff16151514610635576040517f08c379a000000000000000000000000000000000000000000000000000000000815260040161062c906111c3565b60405180910390fd5b33600560016101000a81548173ffffffffffffffffffffffffffffffffffffffff021916908373ffffffffffffffffffffffffffffffffffffffff1602179055506001600560006101000a81548160ff021916908315150217905550565b60008061069e6107b4565b905060006106ac828661072d565b9050838110156106f1576040517f08c379a00000000000000000000000000000000000000000000000000000000081526004016106e890611243565b60405180910390fd5b6106fe82868684036107bc565b60019250505092915050565b6000806107156107b4565b9050610722818585610a13565b600191505092915050565b6000600160008473ffffffffffffffffffffffffffffffffffffffff1673ffffffffffffffffffffffffffffffffffffffff16815260200190815260200160002060008373ffffffffffffffffffffffffffffffffffffffff1673ffffffffffffffffffffffffffffffffffffffff16815260200190815260200160002054905092915050565b600033905090565b600073ffffffffffffffffffffffffffffffffffffffff168373ffffffffffffffffffffffffffffffffffffffff16141561082c576040517f08c379a000000000000000000000000000000000000000000000000000000000815260040161082390611223565b60405180910390fd5b600073ffffffffffffffffffffffffffffffffffffffff168273ffffffffffffffffffffffffffffffffffffffff16141561089c576040517f08c379a000000000000000000000000000000000000000000000000000000000815260040161089390611163565b60405180910390fd5b80600160008573ffffffffffffffffffffffffffffffffffffffff1673ffffffffffffffffffffffffffffffffffffffff16815260200190815260200160002060008473ffffffffffffffffffffffffffffffffffffffff1673ffffffffffffffffffffffffffffffffffffffff168152602001908152602001600020819055508173ffffffffffffffffffffffffffffffffffffffff168373ffffffffffffffffffffffffffffffffffffffff167f8c5be1e5ebec7d5bd14f71427d1e84f3dd0314c0f7b2291e5b200ac8c7c3b9258360405161097a9190611283565b60405180910390a3505050565b6000610993848461072d565b90507fffffffffffffffffffffffffffffffffffffffffffffffffffffffffffffffff8114610a0d57818110156109ff576040517f08c379a00000000000000000000000000000000000000000000000000000000081526004016109f690611183565b60405180910390fd5b610a0c84848484036107bc565b5b50505050565b600073ffffffffffffffffffffffffffffffffffffffff168373ffffffffffffffffffffffffffffffffffffffff161415610a83576040517f08c379a0000000000000000000000000000000000000000000000000000000008152600401610a7a90611203565b60405180910390fd5b600073ffffffffffffffffffffffffffffffffffffffff168273ffffffffffffffffffffffffffffffffffffffff161415610af3576040517f08c379a0000000000000000000000000000000000000000000000000000000008152600401610aea90611143565b60405180910390fd5b610afe838383610df4565b60008060008573ffffffffffffffffffffffffffffffffffffffff1673ffffffffffffffffffffffffffffffffffffffff16815260200190815260200160002054905081811015610b84576040517f08c379a0000000000000000000000000000000000000000000000000000000008152600401610b7b906111a3565b60405180910390fd5b8181036000808673ffffffffffffffffffffffffffffffffffffffff1673ffffffffffffffffffffffffffffffffffffffff16815260200190815260200160002081905550816000808573ffffffffffffffffffffffffffffffffffffffff1673ffffffffffffffffffffffffffffffffffffffff1681526020019081526020016000206000828254610c1791906112d5565b925050819055508273ffffffffffffffffffffffffffffffffffffffff168473ffffffffffffffffffffffffffffffffffffffff167fddf252ad1be2c89b69c2b068fc378daa952ba7f163c4a11628f55a4df523b3ef84604051610c7b9190611283565b60405180910390a3610c8e848484610df9565b50505050565b600073ffffffffffffffffffffffffffffffffffffffff168273ffffffffffffffffffffffffffffffffffffffff161415610d04576040517f08c379a0000000000000000000000000000000000000000000000000000000008152600401610cfb90611263565b60405180910390fd5b610d1060008383610df4565b8060026000828254610d2291906112d5565b92505081905550806000808473ffffffffffffffffffffffffffffffffffffffff1673ffffffffffffffffffffffffffffffffffffffff1681526020019081526020016000206000828254610d7791906112d5565b925050819055508173ffffffffffffffffffffffffffffffffffffffff16600073ffffffffffffffffffffffffffffffffffffffff167fddf252ad1be2c89b69c2b068fc378daa952ba7f163c4a11628f55a4df523b3ef83604051610ddc9190611283565b60405180910390a3610df060008383610df9565b5050565b505050565b505050565b600081359050610e0d8161171e565b92915050565b600081359050610e2281611735565b92915050565b600060208284031215610e3a57600080fd5b6000610e4884828501610dfe565b91505092915050565b60008060408385031215610e6457600080fd5b6000610e7285828601610dfe565b9250506020610e8385828601610dfe565b9150509250929050565b600080600060608486031215610ea257600080fd5b6000610eb086828701610dfe565b9350506020610ec186828701610dfe565b9250506040610ed286828701610e13565b9150509250925092565b60008060408385031215610eef57600080fd5b6000610efd85828601610dfe565b9250506020610f0e85828601610e13565b9150509250929050565b610f218161132b565b82525050565b610f308161133d565b82525050565b6000610f41826112b9565b610f4b81856112c4565b9350610f5b818560208601611380565b610f6481611443565b840191505092915050565b6000610f7c6023836112c4565b9150610f8782611454565b604082019050919050565b6000610f9f6022836112c4565b9150610faa826114a3565b604082019050919050565b6000610fc2601d836112c4565b9150610fcd826114f2565b602082019050919050565b6000610fe56026836112c4565b9150610ff08261151b565b604082019050919050565b6000611008602a836112c4565b91506110138261156a565b604082019050919050565b600061102b6024836112c4565b9150611036826115b9565b604082019050919050565b600061104e6025836112c4565b915061105982611608565b604082019050919050565b60006110716024836112c4565b915061107c82611657565b604082019050919050565b60006110946025836112c4565b915061109f826116a6565b604082019050919050565b60006110b7601f836112c4565b91506110c2826116f5565b602082019050919050565b6110d681611369565b82525050565b6110e581611373565b82525050565b60006020820190506111006000830184610f18565b92915050565b600060208201905061111b6000830184610f27565b92915050565b6000602082019050818103600083015261113b8184610f36565b905092915050565b6000602082019050818103600083015261115c81610f6f565b9050919050565b6000602082019050818103600083015261117c81610f92565b9050919050565b6000602082019050818103600083015261119c81610fb5565b9050919050565b600060208201905081810360008301526111bc81610fd8565b9050919050565b600060208201905081810360008301526111dc81610ffb565b9050919050565b600060208201905081810360008301526111fc8161101e565b9050919050565b6000602082019050818103600083015261121c81611041565b9050919050565b6000602082019050818103600083015261123c81611064565b9050919050565b6000602082019050818103600083015261125c81611087565b9050919050565b6000602082019050818103600083015261127c816110aa565b9050919050565b600060208201905061129860008301846110cd565b92915050565b60006020820190506112b360008301846110dc565b92915050565b600081519050919050565b600082825260208201905092915050565b60006112e082611369565b91506112eb83611369565b9250827fffffffffffffffffffffffffffffffffffffffffffffffffffffffffffffffff038211156113205761131f6113e5565b5b828201905092915050565b600061133682611349565b9050919050565b60008115159050919050565b600073ffffffffffffffffffffffffffffffffffffffff82169050919050565b6000819050919050565b600060ff82169050919050565b60005b8381101561139e578082015181840152602081019050611383565b838111156113ad576000848401525b50505050565b600060028204905060018216806113cb57607f821691505b602082108114156113df576113de611414565b5b50919050565b7f4e487b7100000000000000000000000000000000000000000000000000000000600052601160045260246000fd5b7f4e487b7100000000000000000000000000000000000000000000000000000000600052602260045260246000fd5b6000601f19601f8301169050919050565b7f45524332303a207472616e7366657220746f20746865207a65726f206164647260008201527f6573730000000000000000000000000000000000000000000000000000000000602082015250565b7f45524332303a20617070726f766520746f20746865207a65726f20616464726560008201527f7373000000000000000000000000000000000000000000000000000000000000602082015250565b7f45524332303a20696e73756666696369656e7420616c6c6f77616e6365000000600082015250565b7f45524332303a207472616e7366657220616d6f756e742065786365656473206260008201527f616c616e63650000000000000000000000000000000000000000000000000000602082015250565b7f5468697320436f6e637472616374206973206e6f742074686520436f6e74726160008201527f63742773204f776e657200000000000000000000000000000000000000000000602082015250565b7f596f7520617265206e6f742074686520536d61727420436f6e7472616374204f60008201527f776e657200000000000000000000000000000000000000000000000000000000602082015250565b7f45524332303a207472616e736665722066726f6d20746865207a65726f20616460008201527f6472657373000000000000000000000000000000000000000000000000000000602082015250565b7f45524332303a20617070726f76652066726f6d20746865207a65726f2061646460008201527f7265737300000000000000000000000000000000000000000000000000000000602082015250565b7f45524332303a2064656372656173656420616c6c6f77616e63652062656c6f7760008201527f207a65726f000000000000000000000000000000000000000000000000000000602082015250565b7f45524332303a206d696e7420746f20746865207a65726f206164647265737300600082015250565b6117278161132b565b811461173257600080fd5b50565b61173e81611369565b811461174957600080fd5b5056fea2646970667358221220f867aae70925fffe36095af5414c8fea77e615c68186582477c98e73276ca55d64736f6c63430008040033",
  "linkReferences": {},
  "deployedLinkReferences": {}
}