{
  "_format": "hh-sol-artifact-1",
  "contractName": "Swap",
  "sourceName": "contracts/Swap.sol",
  "abi": [
    {
      "inputs": [
        {
          "internalType": "address",
          "name": "_FranceTokenAddress",
          "type": "address"
        },
        {
          "internalType": "address",
          "name": "_BrasilTokenAddress",
          "type": "address"
        },
        {
          "internalType": "address",
          "name": "_LinkToken",
          "type": "address"
        },
        {
          "internalType": "address",
          "name": "_LinkOracle",
          "type": "address"
        }
      ],
      "stateMutability": "nonpayable",
      "type": "constructor"
    },
    {
      "anonymous": false,
      "inputs": [
        {
          "indexed": true,
          "internalType": "address",
          "name": "owner",
          "type": "address"
        },
        {
          "indexed": true,
          "internalType": "address",
          "name": "spender",
          "type": "address"
        },
        {
          "indexed": false,
          "internalType": "uint256",
          "name": "value",
          "type": "uint256"
        }
      ],
      "name": "Approval",
      "type": "event"
    },
    {
      "anonymous": false,
      "inputs": [
        {
          "indexed": true,
          "internalType": "bytes32",
          "name": "id",
          "type": "bytes32"
        }
      ],
      "name": "ChainlinkCancelled",
      "type": "event"
    },
    {
      "anonymous": false,
      "inputs": [
        {
          "indexed": true,
          "internalType": "bytes32",
          "name": "id",
          "type": "bytes32"
        }
      ],
      "name": "ChainlinkFulfilled",
      "type": "event"
    },
    {
      "anonymous": false,
      "inputs": [
        {
          "indexed": true,
          "internalType": "bytes32",
          "name": "id",
          "type": "bytes32"
        }
      ],
      "name": "ChainlinkRequested",
      "type": "event"
    },
    {
      "anonymous": false,
      "inputs": [
        {
          "indexed": true,
          "internalType": "address",
          "name": "userAddress",
          "type": "address"
        },
        {
          "indexed": false,
          "internalType": "uint256",
          "name": "amount",
          "type": "uint256"
        },
        {
          "indexed": false,
          "internalType": "uint256",
          "name": "tokenReceived",
          "type": "uint256"
        },
        {
          "indexed": false,
          "internalType": "string",
          "name": "functionName",
          "type": "string"
        }
      ],
      "name": "DepositMade",
      "type": "event"
    },
    {
      "anonymous": false,
      "inputs": [
        {
          "indexed": true,
          "internalType": "address",
          "name": "from",
          "type": "address"
        },
        {
          "indexed": true,
          "internalType": "address",
          "name": "to",
          "type": "address"
        }
      ],
      "name": "OwnershipTransferRequested",
      "type": "event"
    },
    {
      "anonymous": false,
      "inputs": [
        {
          "indexed": true,
          "internalType": "address",
          "name": "from",
          "type": "address"
        },
        {
          "indexed": true,
          "internalType": "address",
          "name": "to",
          "type": "address"
        }
      ],
      "name": "OwnershipTransferred",
      "type": "event"
    },
    {
      "anonymous": false,
      "inputs": [
        {
          "indexed": true,
          "internalType": "bytes32",
          "name": "requestId",
          "type": "bytes32"
        },
        {
          "indexed": false,
          "internalType": "uint256",
          "name": "homeScore",
          "type": "uint256"
        },
        {
          "indexed": false,
          "internalType": "uint256",
          "name": "awayScore",
          "type": "uint256"
        }
      ],
      "name": "RequestMultipleFulfilled",
      "type": "event"
    },
    {
      "anonymous": false,
      "inputs": [
        {
          "indexed": true,
          "internalType": "address",
          "name": "from",
          "type": "address"
        },
        {
          "indexed": true,
          "internalType": "address",
          "name": "to",
          "type": "address"
        },
        {
          "indexed": false,
          "internalType": "uint256",
          "name": "value",
          "type": "uint256"
        }
      ],
      "name": "Transfer",
      "type": "event"
    },
    {
      "inputs": [],
      "name": "BrasilTokenAddress",
      "outputs": [
        {
          "internalType": "address",
          "name": "",
          "type": "address"
        }
      ],
      "stateMutability": "view",
      "type": "function"
    },
    {
      "inputs": [],
      "name": "FinalResult",
      "outputs": [
        {
          "internalType": "uint256",
          "name": "",
          "type": "uint256"
        }
      ],
      "stateMutability": "view",
      "type": "function"
    },
    {
      "inputs": [],
      "name": "FranceTokenAddress",
      "outputs": [
        {
          "internalType": "address",
          "name": "",
          "type": "address"
        }
      ],
      "stateMutability": "view",
      "type": "function"
    },
    {
      "inputs": [],
      "name": "acceptOwnership",
      "outputs": [],
      "stateMutability": "nonpayable",
      "type": "function"
    },
    {
      "inputs": [
        {
          "internalType": "uint256",
          "name": "_amountTeamA",
          "type": "uint256"
        },
        {
          "internalType": "uint256",
          "name": "_amountTeamB",
          "type": "uint256"
        }
      ],
      "name": "addLiquidity",
      "outputs": [],
      "stateMutability": "nonpayable",
      "type": "function"
    },
    {
      "inputs": [
        {
          "internalType": "address",
          "name": "owner",
          "type": "address"
        },
        {
          "internalType": "address",
          "name": "spender",
          "type": "address"
        }
      ],
      "name": "allowance",
      "outputs": [
        {
          "internalType": "uint256",
          "name": "",
          "type": "uint256"
        }
      ],
      "stateMutability": "view",
      "type": "function"
    },
    {
      "inputs": [
        {
          "internalType": "address",
          "name": "spender",
          "type": "address"
        },
        {
          "internalType": "uint256",
          "name": "amount",
          "type": "uint256"
        }
      ],
      "name": "approve",
      "outputs": [
        {
          "internalType": "bool",
          "name": "",
          "type": "bool"
        }
      ],
      "stateMutability": "nonpayable",
      "type": "function"
    },
    {
      "inputs": [],
      "name": "awayScore",
      "outputs": [
        {
          "internalType": "uint256",
          "name": "",
          "type": "uint256"
        }
      ],
      "stateMutability": "view",
      "type": "function"
    },
    {
      "inputs": [
        {
          "internalType": "address",
          "name": "account",
          "type": "address"
        }
      ],
      "name": "balanceOf",
      "outputs": [
        {
          "internalType": "uint256",
          "name": "",
          "type": "uint256"
        }
      ],
      "stateMutability": "view",
      "type": "function"
    },
    {
      "inputs": [],
      "name": "contractBalance",
      "outputs": [
        {
          "internalType": "uint256",
          "name": "",
          "type": "uint256"
        }
      ],
      "stateMutability": "view",
      "type": "function"
    },
    {
      "inputs": [],
      "name": "decimals",
      "outputs": [
        {
          "internalType": "uint8",
          "name": "",
          "type": "uint8"
        }
      ],
      "stateMutability": "view",
      "type": "function"
    },
    {
      "inputs": [
        {
          "internalType": "address",
          "name": "spender",
          "type": "address"
        },
        {
          "internalType": "uint256",
          "name": "subtractedValue",
          "type": "uint256"
        }
      ],
      "name": "decreaseAllowance",
      "outputs": [
        {
          "internalType": "bool",
          "name": "",
          "type": "bool"
        }
      ],
      "stateMutability": "nonpayable",
      "type": "function"
    },
    {
      "inputs": [],
      "name": "deposit_swapBRAtoFR",
      "outputs": [],
      "stateMutability": "payable",
      "type": "function"
    },
    {
      "inputs": [],
      "name": "deposit_swapFRtoBRA",
      "outputs": [],
      "stateMutability": "payable",
      "type": "function"
    },
    {
      "inputs": [
        {
          "internalType": "bytes32",
          "name": "requestId",
          "type": "bytes32"
        },
        {
          "internalType": "uint256",
          "name": "homeResponse",
          "type": "uint256"
        },
        {
          "internalType": "uint256",
          "name": "awayResponse",
          "type": "uint256"
        }
      ],
      "name": "fulfillMultipleParameters",
      "outputs": [],
      "stateMutability": "nonpayable",
      "type": "function"
    },
    {
      "inputs": [],
      "name": "gameOver",
      "outputs": [],
      "stateMutability": "nonpayable",
      "type": "function"
    },
    {
      "inputs": [],
      "name": "getBalanceWalletBrasil",
      "outputs": [
        {
          "internalType": "uint256",
          "name": "",
          "type": "uint256"
        }
      ],
      "stateMutability": "view",
      "type": "function"
    },
    {
      "inputs": [],
      "name": "getBalanceWalletFrance",
      "outputs": [
        {
          "internalType": "uint256",
          "name": "",
          "type": "uint256"
        }
      ],
      "stateMutability": "view",
      "type": "function"
    },
    {
      "inputs": [],
      "name": "getReserveBrasil",
      "outputs": [
        {
          "internalType": "uint256",
          "name": "",
          "type": "uint256"
        }
      ],
      "stateMutability": "view",
      "type": "function"
    },
    {
      "inputs": [],
      "name": "getReserveFrance",
      "outputs": [
        {
          "internalType": "uint256",
          "name": "",
          "type": "uint256"
        }
      ],
      "stateMutability": "view",
      "type": "function"
    },
    {
      "inputs": [],
      "name": "homeScore",
      "outputs": [
        {
          "internalType": "uint256",
          "name": "",
          "type": "uint256"
        }
      ],
      "stateMutability": "view",
      "type": "function"
    },
    {
      "inputs": [
        {
          "internalType": "address",
          "name": "spender",
          "type": "address"
        },
        {
          "internalType": "uint256",
          "name": "addedValue",
          "type": "uint256"
        }
      ],
      "name": "increaseAllowance",
      "outputs": [
        {
          "internalType": "bool",
          "name": "",
          "type": "bool"
        }
      ],
      "stateMutability": "nonpayable",
      "type": "function"
    },
    {
      "inputs": [],
      "name": "name",
      "outputs": [
        {
          "internalType": "string",
          "name": "",
          "type": "string"
        }
      ],
      "stateMutability": "view",
      "type": "function"
    },
    {
      "inputs": [],
      "name": "ownTokenContracts",
      "outputs": [],
      "stateMutability": "nonpayable",
      "type": "function"
    },
    {
      "inputs": [],
      "name": "owner",
      "outputs": [
        {
          "internalType": "address",
          "name": "",
          "type": "address"
        }
      ],
      "stateMutability": "view",
      "type": "function"
    },
    {
      "inputs": [],
      "name": "removeLiquidity",
      "outputs": [],
      "stateMutability": "nonpayable",
      "type": "function"
    },
    {
      "inputs": [],
      "name": "requestMultipleParameters",
      "outputs": [],
      "stateMutability": "nonpayable",
      "type": "function"
    },
    {
      "inputs": [],
      "name": "symbol",
      "outputs": [
        {
          "internalType": "string",
          "name": "",
          "type": "string"
        }
      ],
      "stateMutability": "view",
      "type": "function"
    },
    {
      "inputs": [],
      "name": "totalSupply",
      "outputs": [
        {
          "internalType": "uint256",
          "name": "",
          "type": "uint256"
        }
      ],
      "stateMutability": "view",
      "type": "function"
    },
    {
      "inputs": [
        {
          "internalType": "address",
          "name": "to",
          "type": "address"
        },
        {
          "internalType": "uint256",
          "name": "amount",
          "type": "uint256"
        }
      ],
      "name": "transfer",
      "outputs": [
        {
          "internalType": "bool",
          "name": "",
          "type": "bool"
        }
      ],
      "stateMutability": "nonpayable",
      "type": "function"
    },
    {
      "inputs": [
        {
          "internalType": "address",
          "name": "from",
          "type": "address"
        },
        {
          "internalType": "address",
          "name": "to",
          "type": "address"
        },
        {
          "internalType": "uint256",
          "name": "amount",
          "type": "uint256"
        }
      ],
      "name": "transferFrom",
      "outputs": [
        {
          "internalType": "bool",
          "name": "",
          "type": "bool"
        }
      ],
      "stateMutability": "nonpayable",
      "type": "function"
    },
    {
      "inputs": [
        {
          "internalType": "address",
          "name": "to",
          "type": "address"
        }
      ],
      "name": "transferOwnership",
      "outputs": [],
      "stateMutability": "nonpayable",
      "type": "function"
    },
    {
      "inputs": [],
      "name": "walletBalance",
      "outputs": [
        {
          "internalType": "uint256",
          "name": "",
          "type": "uint256"
        }
      ],
      "stateMutability": "view",
      "type": "function"
    },
    {
      "inputs": [],
      "name": "withdrawLink",
      "outputs": [],
      "stateMutability": "nonpayable",
      "type": "function"
    }
  ],
  "bytecode": "0x6080604052600160095560006013553480156200001b57600080fd5b50604051620053b6380380620053b6833981810160405281019062000041919062000564565b338060006040518060400160405280600f81526020017f4c697175696469747920546f6b656e00000000000000000000000000000000008152506040518060400160405280600381526020017f4c505400000000000000000000000000000000000000000000000000000000008152508160039080519060200190620000c99291906200049d565b508060049080519060200190620000e29291906200049d565b505050600073ffffffffffffffffffffffffffffffffffffffff168273ffffffffffffffffffffffffffffffffffffffff16141562000158576040517f08c379a00000000000000000000000000000000000000000000000000000000081526004016200014f906200061e565b60405180910390fd5b81600b60006101000a81548173ffffffffffffffffffffffffffffffffffffffff021916908373ffffffffffffffffffffffffffffffffffffffff160217905550600073ffffffffffffffffffffffffffffffffffffffff168173ffffffffffffffffffffffffffffffffffffffff1614620001e057620001df81620002e360201b60201c565b5b5050507f6661333830323365343461383462363338346339343131343031393034393937600f819055506200021b826200041560201b60201c565b6200022c816200045960201b60201c565b600a670de0b6b3a76400006001620002459190620006ab565b62000251919062000673565b60108190555083600d60006101000a81548173ffffffffffffffffffffffffffffffffffffffff021916908373ffffffffffffffffffffffffffffffffffffffff16021790555082600e60006101000a81548173ffffffffffffffffffffffffffffffffffffffff021916908373ffffffffffffffffffffffffffffffffffffffff1602179055505050505062000879565b3373ffffffffffffffffffffffffffffffffffffffff168173ffffffffffffffffffffffffffffffffffffffff16141562000355576040517f08c379a00000000000000000000000000000000000000000000000000000000081526004016200034c9062000640565b60405180910390fd5b80600c60006101000a81548173ffffffffffffffffffffffffffffffffffffffff021916908373ffffffffffffffffffffffffffffffffffffffff1602179055508073ffffffffffffffffffffffffffffffffffffffff16600b60009054906101000a900473ffffffffffffffffffffffffffffffffffffffff1673ffffffffffffffffffffffffffffffffffffffff167fed8889f560326eb138920d842192f0eb3dd22b4f139c87a2c57538e05bae127860405160405180910390a350565b80600760006101000a81548173ffffffffffffffffffffffffffffffffffffffff021916908373ffffffffffffffffffffffffffffffffffffffff16021790555050565b80600860006101000a81548173ffffffffffffffffffffffffffffffffffffffff021916908373ffffffffffffffffffffffffffffffffffffffff16021790555050565b828054620004ab906200074a565b90600052602060002090601f016020900481019282620004cf57600085556200051b565b82601f10620004ea57805160ff19168380011785556200051b565b828001600101855582156200051b579182015b828111156200051a578251825591602001919060010190620004fd565b5b5090506200052a91906200052e565b5090565b5b80821115620005495760008160009055506001016200052f565b5090565b6000815190506200055e816200085f565b92915050565b600080600080608085870312156200057b57600080fd5b60006200058b878288016200054d565b94505060206200059e878288016200054d565b9350506040620005b1878288016200054d565b9250506060620005c4878288016200054d565b91505092959194509250565b6000620005df60188362000662565b9150620005ec826200080d565b602082019050919050565b60006200060660178362000662565b9150620006138262000836565b602082019050919050565b600060208201905081810360008301526200063981620005d0565b9050919050565b600060208201905081810360008301526200065b81620005f7565b9050919050565b600082825260208201905092915050565b6000620006808262000740565b91506200068d8362000740565b925082620006a0576200069f620007af565b5b828204905092915050565b6000620006b88262000740565b9150620006c58362000740565b9250817fffffffffffffffffffffffffffffffffffffffffffffffffffffffffffffffff048311821515161562000701576200070062000780565b5b828202905092915050565b6000620007198262000720565b9050919050565b600073ffffffffffffffffffffffffffffffffffffffff82169050919050565b6000819050919050565b600060028204905060018216806200076357607f821691505b602082108114156200077a5762000779620007de565b5b50919050565b7f4e487b7100000000000000000000000000000000000000000000000000000000600052601160045260246000fd5b7f4e487b7100000000000000000000000000000000000000000000000000000000600052601260045260246000fd5b7f4e487b7100000000000000000000000000000000000000000000000000000000600052602260045260246000fd5b7f43616e6e6f7420736574206f776e657220746f207a65726f0000000000000000600082015250565b7f43616e6e6f74207472616e7366657220746f2073656c66000000000000000000600082015250565b6200086a816200070c565b81146200087657600080fd5b50565b614b2d80620008896000396000f3fe6080604052600436106101f95760003560e01c806379ba50971161010d578063a9059cbb116100a0578063d1d6a2d61161006f578063d1d6a2d61461068b578063d38d9639146106b6578063dd62ed3e146106e1578063f2fde38b1461071e578063fa4be62214610747576101f9565b8063a9059cbb146105e1578063b3af31241461061e578063bdb337d114610649578063cd0a314b14610660576101f9565b806394b3886c116100dc57806394b3886c1461052557806395d89b41146105505780639cd441da1461057b578063a457c2d7146105a4576101f9565b806379ba5097146104a15780638b7afe2e146104b85780638da5cb5b146104e35780638dc654a21461050e576101f9565b806337d36fef116101905780634795db521161015f5780634795db52146103e05780634a3afb471461040b57806367b9a286146104225780636db5fc9c1461043957806370a0823114610464576101f9565b806337d36fef1461033857806339509351146103615780633a3af1701461039e578063422f8edf146103c9576101f9565b806329e8dbee116101cc57806329e8dbee146102ce5780632fa70b73146102d8578063313ce567146102e257806334a5462c1461030d576101f9565b806306fdde03146101fe578063095ea7b31461022957806318160ddd1461026657806323b872dd14610291575b600080fd5b34801561020a57600080fd5b50610213610772565b6040516102209190613dbf565b60405180910390f35b34801561023557600080fd5b50610250600480360381019061024b9190613756565b610804565b60405161025d9190613da4565b60405180910390f35b34801561027257600080fd5b5061027b610827565b6040516102889190614001565b60405180910390f35b34801561029d57600080fd5b506102b860048036038101906102b39190613707565b610831565b6040516102c59190613da4565b60405180910390f35b6102d6610860565b005b6102e0610bc1565b005b3480156102ee57600080fd5b506102f7610f22565b60405161030491906140bd565b60405180910390f35b34801561031957600080fd5b50610322610f2b565b60405161032f9190614001565b60405180910390f35b34801561034457600080fd5b5061035f600480360381019061035a91906137bb565b610f31565b005b34801561036d57600080fd5b5061038860048036038101906103839190613756565b6110c0565b6040516103959190613da4565b60405180910390f35b3480156103aa57600080fd5b506103b36110f7565b6040516103c09190614001565b60405180910390f35b3480156103d557600080fd5b506103de6111ae565b005b3480156103ec57600080fd5b506103f56112bc565b6040516104029190614001565b60405180910390f35b34801561041757600080fd5b50610420611373565b005b34801561042e57600080fd5b506104376114fb565b005b34801561044557600080fd5b5061044e611673565b60405161045b9190614001565b60405180910390f35b34801561047057600080fd5b5061048b600480360381019061048691906136a2565b611679565b6040516104989190614001565b60405180910390f35b3480156104ad57600080fd5b506104b66116c1565b005b3480156104c457600080fd5b506104cd611858565b6040516104da9190614001565b60405180910390f35b3480156104ef57600080fd5b506104f8611860565b6040516105059190613c66565b60405180910390f35b34801561051a57600080fd5b5061052361188a565b005b34801561053157600080fd5b5061053a6119f5565b6040516105479190614001565b60405180910390f35b34801561055c57600080fd5b50610565611aac565b6040516105729190613dbf565b60405180910390f35b34801561058757600080fd5b506105a2600480360381019061059d9190613833565b611b3e565b005b3480156105b057600080fd5b506105cb60048036038101906105c69190613756565b611cae565b6040516105d89190613da4565b60405180910390f35b3480156105ed57600080fd5b5061060860048036038101906106039190613756565b611d25565b6040516106159190613da4565b60405180910390f35b34801561062a57600080fd5b50610633611d48565b6040516106409190613c66565b60405180910390f35b34801561065557600080fd5b5061065e611d6e565b005b34801561066c57600080fd5b506106756124f9565b6040516106829190614001565b60405180910390f35b34801561069757600080fd5b506106a0612518565b6040516106ad9190614001565b60405180910390f35b3480156106c257600080fd5b506106cb6125cf565b6040516106d89190614001565b60405180910390f35b3480156106ed57600080fd5b50610708600480360381019061070391906136cb565b6125d5565b6040516107159190614001565b60405180910390f35b34801561072a57600080fd5b50610745600480360381019061074091906136a2565b61265c565b005b34801561075357600080fd5b5061075c612670565b6040516107699190613c66565b60405180910390f35b60606003805461078190614483565b80601f01602080910402602001604051908101604052809291908181526020018280546107ad90614483565b80156107fa5780601f106107cf576101008083540402835291602001916107fa565b820191906000526020600020905b8154815290600101906020018083116107dd57829003601f168201915b5050505050905090565b60008061080f612696565b905061081c81858561269e565b600191505092915050565b6000600254905090565b60008061083c612696565b9050610849858285612869565b6108548585856128f5565b60019150509392505050565b600034116108a3576040517f08c379a000000000000000000000000000000000000000000000000000000000815260040161089a90613fc1565b60405180910390fd5b600d60009054906101000a900473ffffffffffffffffffffffffffffffffffffffff1673ffffffffffffffffffffffffffffffffffffffff166340c10f1933346040518363ffffffff1660e01b8152600401610900929190613cb8565b600060405180830381600087803b15801561091a57600080fd5b505af115801561092e573d6000803e3d6000fd5b50505050600e60009054906101000a900473ffffffffffffffffffffffffffffffffffffffff1673ffffffffffffffffffffffffffffffffffffffff166340c10f1933346040518363ffffffff1660e01b815260040161098f929190613cb8565b600060405180830381600087803b1580156109a957600080fd5b505af11580156109bd573d6000803e3d6000fd5b50505050600d60009054906101000a900473ffffffffffffffffffffffffffffffffffffffff1673ffffffffffffffffffffffffffffffffffffffff166323b872dd3330346040518463ffffffff1660e01b8152600401610a2093929190613c81565b602060405180830381600087803b158015610a3a57600080fd5b505af1158015610a4e573d6000803e3d6000fd5b505050506040513d601f19601f82011682018060405250810190610a729190613792565b50600034610a7e6119f5565b610a88919061436d565b90506000610a946110f7565b905060003483610aa4919061411b565b8234610ab09190614313565b610aba9190614171565b9050600e60009054906101000a900473ffffffffffffffffffffffffffffffffffffffff1673ffffffffffffffffffffffffffffffffffffffff1663a9059cbb33836040518363ffffffff1660e01b8152600401610b19929190613cb8565b602060405180830381600087803b158015610b3357600080fd5b505af1158015610b47573d6000803e3d6000fd5b505050506040513d601f19601f82011682018060405250810190610b6b9190613792565b503373ffffffffffffffffffffffffffffffffffffffff167feff24ae1a526a59e44052f06c0e3fc3e2328bc71d8eaadc772a1a42ce563f3313483604051610bb4929190614081565b60405180910390a2505050565b60003411610c04576040517f08c379a0000000000000000000000000000000000000000000000000000000008152600401610bfb90613fc1565b60405180910390fd5b600d60009054906101000a900473ffffffffffffffffffffffffffffffffffffffff1673ffffffffffffffffffffffffffffffffffffffff166340c10f1933346040518363ffffffff1660e01b8152600401610c61929190613cb8565b600060405180830381600087803b158015610c7b57600080fd5b505af1158015610c8f573d6000803e3d6000fd5b50505050600e60009054906101000a900473ffffffffffffffffffffffffffffffffffffffff1673ffffffffffffffffffffffffffffffffffffffff166340c10f1933346040518363ffffffff1660e01b8152600401610cf0929190613cb8565b600060405180830381600087803b158015610d0a57600080fd5b505af1158015610d1e573d6000803e3d6000fd5b50505050600e60009054906101000a900473ffffffffffffffffffffffffffffffffffffffff1673ffffffffffffffffffffffffffffffffffffffff166323b872dd3330346040518463ffffffff1660e01b8152600401610d8193929190613c81565b602060405180830381600087803b158015610d9b57600080fd5b505af1158015610daf573d6000803e3d6000fd5b505050506040513d601f19601f82011682018060405250810190610dd39190613792565b506000610dde6119f5565b9050600034610deb6110f7565b610df5919061436d565b905060003482610e05919061411b565b8334610e119190614313565b610e1b9190614171565b9050600d60009054906101000a900473ffffffffffffffffffffffffffffffffffffffff1673ffffffffffffffffffffffffffffffffffffffff1663a9059cbb33836040518363ffffffff1660e01b8152600401610e7a929190613cb8565b602060405180830381600087803b158015610e9457600080fd5b505af1158015610ea8573d6000803e3d6000fd5b505050506040513d601f19601f82011682018060405250810190610ecc9190613792565b503373ffffffffffffffffffffffffffffffffffffffff167feff24ae1a526a59e44052f06c0e3fc3e2328bc71d8eaadc772a1a42ce563f3313483604051610f15929190614045565b60405180910390a2505050565b60006012905090565b60135481565b82600a600082815260200190815260200160002060009054906101000a900473ffffffffffffffffffffffffffffffffffffffff1673ffffffffffffffffffffffffffffffffffffffff163373ffffffffffffffffffffffffffffffffffffffff1614610fd3576040517f08c379a0000000000000000000000000000000000000000000000000000000008152600401610fca90613fa1565b60405180910390fd5b600a600082815260200190815260200160002060006101000a81549073ffffffffffffffffffffffffffffffffffffffff0219169055807f7cc135e0cebb02c3480ae5d74d377283180a2601f8f644edf7987b009316c63a60405160405180910390a2837f654e38d2a93112689c11f1c8b02342b0e0adab42ec9f0d00ea593cf9dd9ef8eb848460405161106892919061401c565b60405180910390a2826011819055508160128190555060125460115411156110975760016013819055506110ba565b60125460115414156110b05760026013819055506110b9565b60036013819055505b5b50505050565b6000806110cb612696565b90506110ec8185856110dd85896125d5565b6110e7919061411b565b61269e565b600191505092915050565b600080600e60009054906101000a900473ffffffffffffffffffffffffffffffffffffffff1673ffffffffffffffffffffffffffffffffffffffff166370a08231306040518263ffffffff1660e01b81526004016111559190613c66565b60206040518083038186803b15801561116d57600080fd5b505afa158015611181573d6000803e3d6000fd5b505050506040513d601f19601f820116820180604052508101906111a5919061380a565b90508091505090565b6111b6612b76565b600d60009054906101000a900473ffffffffffffffffffffffffffffffffffffffff1673ffffffffffffffffffffffffffffffffffffffff166398faf2cb6040518163ffffffff1660e01b8152600401600060405180830381600087803b15801561122057600080fd5b505af1158015611234573d6000803e3d6000fd5b50505050600e60009054906101000a900473ffffffffffffffffffffffffffffffffffffffff1673ffffffffffffffffffffffffffffffffffffffff166398faf2cb6040518163ffffffff1660e01b8152600401600060405180830381600087803b1580156112a257600080fd5b505af11580156112b6573d6000803e3d6000fd5b50505050565b600080600d60009054906101000a900473ffffffffffffffffffffffffffffffffffffffff1673ffffffffffffffffffffffffffffffffffffffff166370a08231336040518263ffffffff1660e01b815260040161131a9190613c66565b60206040518083038186803b15801561133257600080fd5b505afa158015611346573d6000803e3d6000fd5b505050506040513d601f19601f8201168201806040525081019061136a919061380a565b90508091505090565b6000611389600f54306337d36fef60e01b612c08565b90506113ed6040518060400160405280600981526020017f75726c524553554c5400000000000000000000000000000000000000000000008152506040518060a00160405280606b8152602001614a8d606b913983612c399092919063ffffffff16565b61146c6040518060400160405280600881526020017f70617468484f4d450000000000000000000000000000000000000000000000008152506040518060400160405280600f81526020017f302c486f6d655465616d53636f7265000000000000000000000000000000000081525083612c399092919063ffffffff16565b6114eb6040518060400160405280600881526020017f70617468415741590000000000000000000000000000000000000000000000008152506040518060400160405280600f81526020017f302c417761795465616d53636f7265000000000000000000000000000000000081525083612c399092919063ffffffff16565b6114f781601054612c6c565b5050565b611503612b76565b600e60009054906101000a900473ffffffffffffffffffffffffffffffffffffffff1673ffffffffffffffffffffffffffffffffffffffff1663a9059cbb3361154a6110f7565b6040518363ffffffff1660e01b8152600401611567929190613cb8565b602060405180830381600087803b15801561158157600080fd5b505af1158015611595573d6000803e3d6000fd5b505050506040513d601f19601f820116820180604052508101906115b99190613792565b50600d60009054906101000a900473ffffffffffffffffffffffffffffffffffffffff1673ffffffffffffffffffffffffffffffffffffffff1663a9059cbb336116016119f5565b6040518363ffffffff1660e01b815260040161161e929190613cb8565b602060405180830381600087803b15801561163857600080fd5b505af115801561164c573d6000803e3d6000fd5b505050506040513d601f19601f820116820180604052508101906116709190613792565b50565b60115481565b60008060008373ffffffffffffffffffffffffffffffffffffffff1673ffffffffffffffffffffffffffffffffffffffff168152602001908152602001600020549050919050565b600c60009054906101000a900473ffffffffffffffffffffffffffffffffffffffff1673ffffffffffffffffffffffffffffffffffffffff163373ffffffffffffffffffffffffffffffffffffffff1614611751576040517f08c379a000000000000000000000000000000000000000000000000000000000815260040161174890613e01565b60405180910390fd5b6000600b60009054906101000a900473ffffffffffffffffffffffffffffffffffffffff16905033600b60006101000a81548173ffffffffffffffffffffffffffffffffffffffff021916908373ffffffffffffffffffffffffffffffffffffffff1602179055506000600c60006101000a81548173ffffffffffffffffffffffffffffffffffffffff021916908373ffffffffffffffffffffffffffffffffffffffff1602179055503373ffffffffffffffffffffffffffffffffffffffff168173ffffffffffffffffffffffffffffffffffffffff167f8be0079c531659141344cd1fd0a4f28419497f9722a3daafe3b4186f6b6457e060405160405180910390a350565b600047905090565b6000600b60009054906101000a900473ffffffffffffffffffffffffffffffffffffffff16905090565b611892612b76565b600061189c612ca3565b90508073ffffffffffffffffffffffffffffffffffffffff1663a9059cbb338373ffffffffffffffffffffffffffffffffffffffff166370a08231306040518263ffffffff1660e01b81526004016118f49190613c66565b60206040518083038186803b15801561190c57600080fd5b505afa158015611920573d6000803e3d6000fd5b505050506040513d601f19601f82011682018060405250810190611944919061380a565b6040518363ffffffff1660e01b8152600401611961929190613cb8565b602060405180830381600087803b15801561197b57600080fd5b505af115801561198f573d6000803e3d6000fd5b505050506040513d601f19601f820116820180604052508101906119b39190613792565b6119f2576040517f08c379a00000000000000000000000000000000000000000000000000000000081526004016119e990613f01565b60405180910390fd5b50565b600080600d60009054906101000a900473ffffffffffffffffffffffffffffffffffffffff1673ffffffffffffffffffffffffffffffffffffffff166370a08231306040518263ffffffff1660e01b8152600401611a539190613c66565b60206040518083038186803b158015611a6b57600080fd5b505afa158015611a7f573d6000803e3d6000fd5b505050506040513d601f19601f82011682018060405250810190611aa3919061380a565b90508091505090565b606060048054611abb90614483565b80601f0160208091040260200160405190810160405280929190818152602001828054611ae790614483565b8015611b345780601f10611b0957610100808354040283529160200191611b34565b820191906000526020600020905b815481529060010190602001808311611b1757829003601f168201915b5050505050905090565b611b46612b76565b600d60009054906101000a900473ffffffffffffffffffffffffffffffffffffffff1673ffffffffffffffffffffffffffffffffffffffff166323b872dd3330856040518463ffffffff1660e01b8152600401611ba593929190613c81565b602060405180830381600087803b158015611bbf57600080fd5b505af1158015611bd3573d6000803e3d6000fd5b505050506040513d601f19601f82011682018060405250810190611bf79190613792565b50600e60009054906101000a900473ffffffffffffffffffffffffffffffffffffffff1673ffffffffffffffffffffffffffffffffffffffff166323b872dd3330846040518463ffffffff1660e01b8152600401611c5793929190613c81565b602060405180830381600087803b158015611c7157600080fd5b505af1158015611c85573d6000803e3d6000fd5b505050506040513d601f19601f82011682018060405250810190611ca99190613792565b505050565b600080611cb9612696565b90506000611cc782866125d5565b905083811015611d0c576040517f08c379a0000000000000000000000000000000000000000000000000000000008152600401611d0390613fe1565b60405180910390fd5b611d19828686840361269e565b60019250505092915050565b600080611d30612696565b9050611d3d8185856128f5565b600191505092915050565b600e60009054906101000a900473ffffffffffffffffffffffffffffffffffffffff1681565b600060135411611db3576040517f08c379a0000000000000000000000000000000000000000000000000000000008152600401611daa90613ee1565b60405180910390fd5b6000611dbd6112bc565b90506000611dc9612518565b90506001601354141561203c576000829050611de3611858565b831015611e25576040517f08c379a0000000000000000000000000000000000000000000000000000000008152600401611e1c90613f21565b60405180910390fd5b600d60009054906101000a900473ffffffffffffffffffffffffffffffffffffffff1673ffffffffffffffffffffffffffffffffffffffff166323b872dd3330866040518463ffffffff1660e01b8152600401611e8493929190613c81565b602060405180830381600087803b158015611e9e57600080fd5b505af1158015611eb2573d6000803e3d6000fd5b505050506040513d601f19601f82011682018060405250810190611ed69190613792565b50600e60009054906101000a900473ffffffffffffffffffffffffffffffffffffffff1673ffffffffffffffffffffffffffffffffffffffff166323b872dd3330856040518463ffffffff1660e01b8152600401611f3693929190613c81565b602060405180830381600087803b158015611f5057600080fd5b505af1158015611f64573d6000803e3d6000fd5b505050506040513d601f19601f82011682018060405250810190611f889190613792565b5060003373ffffffffffffffffffffffffffffffffffffffff1682604051611faf90613c51565b60006040518083038185875af1925050503d8060008114611fec576040519150601f19603f3d011682016040523d82523d6000602084013e611ff1565b606091505b5050905080612035576040517f08c379a000000000000000000000000000000000000000000000000000000000815260040161202c90613ec1565b60405180910390fd5b50506124f5565b600360135414156122ad576000819050612054611858565b821015612096576040517f08c379a000000000000000000000000000000000000000000000000000000000815260040161208d90613f21565b60405180910390fd5b600e60009054906101000a900473ffffffffffffffffffffffffffffffffffffffff1673ffffffffffffffffffffffffffffffffffffffff166323b872dd3330856040518463ffffffff1660e01b81526004016120f593929190613c81565b602060405180830381600087803b15801561210f57600080fd5b505af1158015612123573d6000803e3d6000fd5b505050506040513d601f19601f820116820180604052508101906121479190613792565b50600d60009054906101000a900473ffffffffffffffffffffffffffffffffffffffff1673ffffffffffffffffffffffffffffffffffffffff166323b872dd3330866040518463ffffffff1660e01b81526004016121a793929190613c81565b602060405180830381600087803b1580156121c157600080fd5b505af11580156121d5573d6000803e3d6000fd5b505050506040513d601f19601f820116820180604052508101906121f99190613792565b5060003373ffffffffffffffffffffffffffffffffffffffff168260405161222090613c51565b60006040518083038185875af1925050503d806000811461225d576040519150601f19603f3d011682016040523d82523d6000602084013e612262565b606091505b50509050806122a6576040517f08c379a000000000000000000000000000000000000000000000000000000000815260040161229d90613ec1565b60405180910390fd5b50506124f4565b600260135414156124f35760008290506000829050600082826122d0919061411b565b9050600d60009054906101000a900473ffffffffffffffffffffffffffffffffffffffff1673ffffffffffffffffffffffffffffffffffffffff166323b872dd3330886040518463ffffffff1660e01b815260040161233193929190613c81565b602060405180830381600087803b15801561234b57600080fd5b505af115801561235f573d6000803e3d6000fd5b505050506040513d601f19601f820116820180604052508101906123839190613792565b50600e60009054906101000a900473ffffffffffffffffffffffffffffffffffffffff1673ffffffffffffffffffffffffffffffffffffffff166323b872dd3330876040518463ffffffff1660e01b81526004016123e393929190613c81565b602060405180830381600087803b1580156123fd57600080fd5b505af1158015612411573d6000803e3d6000fd5b505050506040513d601f19601f820116820180604052508101906124359190613792565b5060003373ffffffffffffffffffffffffffffffffffffffff1660028361245c9190614171565b60405161246890613c51565b60006040518083038185875af1925050503d80600081146124a5576040519150601f19603f3d011682016040523d82523d6000602084013e6124aa565b606091505b50509050806124ee576040517f08c379a00000000000000000000000000000000000000000000000000000000081526004016124e590613ec1565b60405180910390fd5b505050505b5b5b5050565b60003373ffffffffffffffffffffffffffffffffffffffff1631905090565b600080600e60009054906101000a900473ffffffffffffffffffffffffffffffffffffffff1673ffffffffffffffffffffffffffffffffffffffff166370a08231336040518263ffffffff1660e01b81526004016125769190613c66565b60206040518083038186803b15801561258e57600080fd5b505afa1580156125a2573d6000803e3d6000fd5b505050506040513d601f19601f820116820180604052508101906125c6919061380a565b90508091505090565b60125481565b6000600160008473ffffffffffffffffffffffffffffffffffffffff1673ffffffffffffffffffffffffffffffffffffffff16815260200190815260200160002060008373ffffffffffffffffffffffffffffffffffffffff1673ffffffffffffffffffffffffffffffffffffffff16815260200190815260200160002054905092915050565b612664612b76565b61266d81612ccd565b50565b600d60009054906101000a900473ffffffffffffffffffffffffffffffffffffffff1681565b600033905090565b600073ffffffffffffffffffffffffffffffffffffffff168373ffffffffffffffffffffffffffffffffffffffff16141561270e576040517f08c379a000000000000000000000000000000000000000000000000000000000815260040161270590613f61565b60405180910390fd5b600073ffffffffffffffffffffffffffffffffffffffff168273ffffffffffffffffffffffffffffffffffffffff16141561277e576040517f08c379a000000000000000000000000000000000000000000000000000000000815260040161277590613e21565b60405180910390fd5b80600160008573ffffffffffffffffffffffffffffffffffffffff1673ffffffffffffffffffffffffffffffffffffffff16815260200190815260200160002060008473ffffffffffffffffffffffffffffffffffffffff1673ffffffffffffffffffffffffffffffffffffffff168152602001908152602001600020819055508173ffffffffffffffffffffffffffffffffffffffff168373ffffffffffffffffffffffffffffffffffffffff167f8c5be1e5ebec7d5bd14f71427d1e84f3dd0314c0f7b2291e5b200ac8c7c3b9258360405161285c9190614001565b60405180910390a3505050565b600061287584846125d5565b90507fffffffffffffffffffffffffffffffffffffffffffffffffffffffffffffffff81146128ef57818110156128e1576040517f08c379a00000000000000000000000000000000000000000000000000000000081526004016128d890613e61565b60405180910390fd5b6128ee848484840361269e565b5b50505050565b600073ffffffffffffffffffffffffffffffffffffffff168373ffffffffffffffffffffffffffffffffffffffff161415612965576040517f08c379a000000000000000000000000000000000000000000000000000000000815260040161295c90613f41565b60405180910390fd5b600073ffffffffffffffffffffffffffffffffffffffff168273ffffffffffffffffffffffffffffffffffffffff1614156129d5576040517f08c379a00000000000000000000000000000000000000000000000000000000081526004016129cc90613de1565b60405180910390fd5b6129e0838383612dfc565b60008060008573ffffffffffffffffffffffffffffffffffffffff1673ffffffffffffffffffffffffffffffffffffffff16815260200190815260200160002054905081811015612a66576040517f08c379a0000000000000000000000000000000000000000000000000000000008152600401612a5d90613ea1565b60405180910390fd5b8181036000808673ffffffffffffffffffffffffffffffffffffffff1673ffffffffffffffffffffffffffffffffffffffff16815260200190815260200160002081905550816000808573ffffffffffffffffffffffffffffffffffffffff1673ffffffffffffffffffffffffffffffffffffffff1681526020019081526020016000206000828254612af9919061411b565b925050819055508273ffffffffffffffffffffffffffffffffffffffff168473ffffffffffffffffffffffffffffffffffffffff167fddf252ad1be2c89b69c2b068fc378daa952ba7f163c4a11628f55a4df523b3ef84604051612b5d9190614001565b60405180910390a3612b70848484612e01565b50505050565b600b60009054906101000a900473ffffffffffffffffffffffffffffffffffffffff1673ffffffffffffffffffffffffffffffffffffffff163373ffffffffffffffffffffffffffffffffffffffff1614612c06576040517f08c379a0000000000000000000000000000000000000000000000000000000008152600401612bfd90613e81565b60405180910390fd5b565b612c106135b2565b612c186135b2565b612c2f85858584612e06909392919063ffffffff16565b9150509392505050565b612c50828460800151612eb690919063ffffffff16565b612c67818460800151612eb690919063ffffffff16565b505050565b6000612c9b600860009054906101000a900473ffffffffffffffffffffffffffffffffffffffff168484612edb565b905092915050565b6000600760009054906101000a900473ffffffffffffffffffffffffffffffffffffffff16905090565b3373ffffffffffffffffffffffffffffffffffffffff168173ffffffffffffffffffffffffffffffffffffffff161415612d3c576040517f08c379a0000000000000000000000000000000000000000000000000000000008152600401612d3390613f81565b60405180910390fd5b80600c60006101000a81548173ffffffffffffffffffffffffffffffffffffffff021916908373ffffffffffffffffffffffffffffffffffffffff1602179055508073ffffffffffffffffffffffffffffffffffffffff16600b60009054906101000a900473ffffffffffffffffffffffffffffffffffffffff1673ffffffffffffffffffffffffffffffffffffffff167fed8889f560326eb138920d842192f0eb3dd22b4f139c87a2c57538e05bae127860405160405180910390a350565b505050565b505050565b612e0e6135b2565b612e1e8560800151610100612fa7565b508385600001818152505082856020019073ffffffffffffffffffffffffffffffffffffffff16908173ffffffffffffffffffffffffffffffffffffffff16815250508185604001907bffffffffffffffffffffffffffffffffffffffffffffffffffffffff191690817bffffffffffffffffffffffffffffffffffffffffffffffffffffffff191681525050849050949350505050565b612ec38260038351613011565b612ed6818361319690919063ffffffff16565b505050565b6000806009549050600181612ef0919061411b565b6009819055506000634042994660e01b60008087600001513089604001518760018c6080015160000151604051602401612f31989796959493929190613ce1565b604051602081830303815290604052907bffffffffffffffffffffffffffffffffffffffffffffffffffffffff19166020820180517bffffffffffffffffffffffffffffffffffffffffffffffffffffffff83818316178352505050509050612f9c868386846131b8565b925050509392505050565b612faf61361f565b6000602083612fbe91906144e3565b14612fea57602082612fd091906144e3565b6020612fdc919061436d565b82612fe7919061411b565b91505b81836020018181525050604051808452600081528281016020016040525082905092915050565b60178167ffffffffffffffff1611613048576130428160058460ff16901b60ff16178461335c90919063ffffffff16565b50613191565b60ff8167ffffffffffffffff161161309e57613077601860058460ff16901b178461335c90919063ffffffff16565b506130988167ffffffffffffffff1660018561337c9092919063ffffffff16565b50613190565b61ffff8167ffffffffffffffff16116130f5576130ce601960058460ff16901b178461335c90919063ffffffff16565b506130ef8167ffffffffffffffff1660028561337c9092919063ffffffff16565b5061318f565b63ffffffff8167ffffffffffffffff161161314e57613127601a60058460ff16901b178461335c90919063ffffffff16565b506131488167ffffffffffffffff1660048561337c9092919063ffffffff16565b5061318e565b61316b601b60058460ff16901b178461335c90919063ffffffff16565b5061318c8167ffffffffffffffff1660088561337c9092919063ffffffff16565b505b5b5b5b505050565b61319e61361f565b6131b08384600001515184855161339e565b905092915050565b600030846040516020016131cd929190613c25565b60405160208183030381529060405280519060200120905084600a600083815260200190815260200160002060006101000a81548173ffffffffffffffffffffffffffffffffffffffff021916908373ffffffffffffffffffffffffffffffffffffffff160217905550807fb5e6e01e79f91267dc17b4e6314d5d4d03593d2ceee0fbb452b750bd70ea5af960405160405180910390a2600760009054906101000a900473ffffffffffffffffffffffffffffffffffffffff1673ffffffffffffffffffffffffffffffffffffffff16634000aea08685856040518463ffffffff1660e01b81526004016132c393929190613d66565b602060405180830381600087803b1580156132dd57600080fd5b505af11580156132f1573d6000803e3d6000fd5b505050506040513d601f19601f820116820180604052508101906133159190613792565b613354576040517f08c379a000000000000000000000000000000000000000000000000000000000815260040161334b90613e41565b60405180910390fd5b949350505050565b61336461361f565b613374838460000151518461348d565b905092915050565b61338461361f565b6133958485600001515185856134e4565b90509392505050565b6133a661361f565b82518211156133b457600080fd5b846020015182856133c5919061411b565b11156133fa576133f98560026133ea886020015188876133e5919061411b565b613572565b6133f49190614313565b61358e565b5b6000808651805187602083010193508088870111156134195787860182525b60208701925050505b60208410613460578051825260208261343b919061411b565b915060208161344a919061411b565b9050602084613459919061436d565b9350613422565b60006001856020036101000a03905080198251168184511681811785525050508692505050949350505050565b61349561361f565b836020015183106134bb576134ba84600286602001516134b59190614313565b61358e565b5b83518051602085830101848153818614156134d7576001820183525b5050508390509392505050565b6134ec61361f565b846020015184836134fd919061411b565b1115613525576135248560028685613515919061411b565b61351f9190614313565b61358e565b5b600060018361010061353791906141f5565b613541919061436d565b905085518386820101858319825116178152815185880111156135645784870182525b505085915050949350505050565b60008183111561358457829050613588565b8190505b92915050565b6000826000015190506135a18383612fa7565b506135ac8382613196565b50505050565b6040518060a0016040528060008019168152602001600073ffffffffffffffffffffffffffffffffffffffff16815260200160007bffffffffffffffffffffffffffffffffffffffffffffffffffffffff191681526020016000815260200161361961361f565b81525090565b604051806040016040528060608152602001600081525090565b60008135905061364881614a30565b92915050565b60008151905061365d81614a47565b92915050565b60008135905061367281614a5e565b92915050565b60008135905061368781614a75565b92915050565b60008151905061369c81614a75565b92915050565b6000602082840312156136b457600080fd5b60006136c284828501613639565b91505092915050565b600080604083850312156136de57600080fd5b60006136ec85828601613639565b92505060206136fd85828601613639565b9150509250929050565b60008060006060848603121561371c57600080fd5b600061372a86828701613639565b935050602061373b86828701613639565b925050604061374c86828701613678565b9150509250925092565b6000806040838503121561376957600080fd5b600061377785828601613639565b925050602061378885828601613678565b9150509250929050565b6000602082840312156137a457600080fd5b60006137b28482850161364e565b91505092915050565b6000806000606084860312156137d057600080fd5b60006137de86828701613663565b93505060206137ef86828701613678565b925050604061380086828701613678565b9150509250925092565b60006020828403121561381c57600080fd5b600061382a8482850161368d565b91505092915050565b6000806040838503121561384657600080fd5b600061385485828601613678565b925050602061386585828601613678565b9150509250929050565b613878816143a1565b82525050565b613887816143b3565b82525050565b613896816143bf565b82525050565b6138a5816143c9565b82525050565b60006138b6826140d8565b6138c081856140ee565b93506138d0818560208601614450565b6138d9816145a1565b840191505092915050565b6138f56138f08261442c565b6144b5565b82525050565b6000613906826140e3565b613910818561410a565b9350613920818560208601614450565b613929816145a1565b840191505092915050565b600061394160238361410a565b915061394c826145cc565b604082019050919050565b600061396460168361410a565b915061396f8261461b565b602082019050919050565b600061398760228361410a565b915061399282614644565b604082019050919050565b60006139aa60138361410a565b91506139b582614693565b602082019050919050565b60006139cd60238361410a565b91506139d8826146bc565b604082019050919050565b60006139f0601d8361410a565b91506139fb8261470b565b602082019050919050565b6000613a1360168361410a565b9150613a1e82614734565b602082019050919050565b6000613a3660268361410a565b9150613a418261475d565b604082019050919050565b6000613a5960148361410a565b9150613a64826147ac565b602082019050919050565b6000613a7c601b8361410a565b9150613a87826147d5565b602082019050919050565b6000613a9f60138361410a565b9150613aaa826147fe565b602082019050919050565b6000613ac260128361410a565b9150613acd82614827565b602082019050919050565b6000613ae5602a8361410a565b9150613af082614850565b604082019050919050565b6000613b0860258361410a565b9150613b138261489f565b604082019050919050565b6000613b2b6000836140ff565b9150613b36826148ee565b600082019050919050565b6000613b4e60248361410a565b9150613b59826148f1565b604082019050919050565b6000613b7160178361410a565b9150613b7c82614940565b602082019050919050565b6000613b9460288361410a565b9150613b9f82614969565b604082019050919050565b6000613bb7601c8361410a565b9150613bc2826149b8565b602082019050919050565b6000613bda60258361410a565b9150613be5826149e1565b604082019050919050565b613bf981614415565b82525050565b613c10613c0b82614415565b6144d9565b82525050565b613c1f8161441f565b82525050565b6000613c3182856138e4565b601482019150613c418284613bff565b6020820191508190509392505050565b6000613c5c82613b1e565b9150819050919050565b6000602082019050613c7b600083018461386f565b92915050565b6000606082019050613c96600083018661386f565b613ca3602083018561386f565b613cb06040830184613bf0565b949350505050565b6000604082019050613ccd600083018561386f565b613cda6020830184613bf0565b9392505050565b600061010082019050613cf7600083018b61386f565b613d04602083018a613bf0565b613d11604083018961388d565b613d1e606083018861386f565b613d2b608083018761389c565b613d3860a0830186613bf0565b613d4560c0830185613bf0565b81810360e0830152613d5781846138ab565b90509998505050505050505050565b6000606082019050613d7b600083018661386f565b613d886020830185613bf0565b8181036040830152613d9a81846138ab565b9050949350505050565b6000602082019050613db9600083018461387e565b92915050565b60006020820190508181036000830152613dd981846138fb565b905092915050565b60006020820190508181036000830152613dfa81613934565b9050919050565b60006020820190508181036000830152613e1a81613957565b9050919050565b60006020820190508181036000830152613e3a8161397a565b9050919050565b60006020820190508181036000830152613e5a816139c0565b9050919050565b60006020820190508181036000830152613e7a816139e3565b9050919050565b60006020820190508181036000830152613e9a81613a06565b9050919050565b60006020820190508181036000830152613eba81613a29565b9050919050565b60006020820190508181036000830152613eda81613a4c565b9050919050565b60006020820190508181036000830152613efa81613a6f565b9050919050565b60006020820190508181036000830152613f1a81613ab5565b9050919050565b60006020820190508181036000830152613f3a81613ad8565b9050919050565b60006020820190508181036000830152613f5a81613afb565b9050919050565b60006020820190508181036000830152613f7a81613b41565b9050919050565b60006020820190508181036000830152613f9a81613b64565b9050919050565b60006020820190508181036000830152613fba81613b87565b9050919050565b60006020820190508181036000830152613fda81613baa565b9050919050565b60006020820190508181036000830152613ffa81613bcd565b9050919050565b60006020820190506140166000830184613bf0565b92915050565b60006040820190506140316000830185613bf0565b61403e6020830184613bf0565b9392505050565b600060608201905061405a6000830185613bf0565b6140676020830184613bf0565b81810360408301526140788161399d565b90509392505050565b60006060820190506140966000830185613bf0565b6140a36020830184613bf0565b81810360408301526140b481613a92565b90509392505050565b60006020820190506140d26000830184613c16565b92915050565b600081519050919050565b600081519050919050565b600082825260208201905092915050565b600081905092915050565b600082825260208201905092915050565b600061412682614415565b915061413183614415565b9250827fffffffffffffffffffffffffffffffffffffffffffffffffffffffffffffffff0382111561416657614165614514565b5b828201905092915050565b600061417c82614415565b915061418783614415565b92508261419757614196614543565b5b828204905092915050565b6000808291508390505b60018511156141ec578086048111156141c8576141c7614514565b5b60018516156141d75780820291505b80810290506141e5856145bf565b94506141ac565b94509492505050565b600061420082614415565b915061420b83614415565b92506142387fffffffffffffffffffffffffffffffffffffffffffffffffffffffffffffffff8484614240565b905092915050565b600082614250576001905061430c565b8161425e576000905061430c565b8160018114614274576002811461427e576142ad565b600191505061430c565b60ff8411156142905761428f614514565b5b8360020a9150848211156142a7576142a6614514565b5b5061430c565b5060208310610133831016604e8410600b84101617156142e25782820a9050838111156142dd576142dc614514565b5b61430c565b6142ef84848460016141a2565b9250905081840481111561430657614305614514565b5b81810290505b9392505050565b600061431e82614415565b915061432983614415565b9250817fffffffffffffffffffffffffffffffffffffffffffffffffffffffffffffffff048311821515161561436257614361614514565b5b828202905092915050565b600061437882614415565b915061438383614415565b92508282101561439657614395614514565b5b828203905092915050565b60006143ac826143f5565b9050919050565b60008115159050919050565b6000819050919050565b60007fffffffff0000000000000000000000000000000000000000000000000000000082169050919050565b600073ffffffffffffffffffffffffffffffffffffffff82169050919050565b6000819050919050565b600060ff82169050919050565b60006144378261443e565b9050919050565b6000614449826143f5565b9050919050565b60005b8381101561446e578082015181840152602081019050614453565b8381111561447d576000848401525b50505050565b6000600282049050600182168061449b57607f821691505b602082108114156144af576144ae614572565b5b50919050565b60006144c0826144c7565b9050919050565b60006144d2826145b2565b9050919050565b6000819050919050565b60006144ee82614415565b91506144f983614415565b92508261450957614508614543565b5b828206905092915050565b7f4e487b7100000000000000000000000000000000000000000000000000000000600052601160045260246000fd5b7f4e487b7100000000000000000000000000000000000000000000000000000000600052601260045260246000fd5b7f4e487b7100000000000000000000000000000000000000000000000000000000600052602260045260246000fd5b6000601f19601f8301169050919050565b60008160601b9050919050565b60008160011c9050919050565b7f45524332303a207472616e7366657220746f20746865207a65726f206164647260008201527f6573730000000000000000000000000000000000000000000000000000000000602082015250565b7f4d7573742062652070726f706f736564206f776e657200000000000000000000600082015250565b7f45524332303a20617070726f766520746f20746865207a65726f20616464726560008201527f7373000000000000000000000000000000000000000000000000000000000000602082015250565b7f6465706f7369745f73776170425241746f465200000000000000000000000000600082015250565b7f756e61626c6520746f207472616e73666572416e6443616c6c20746f206f726160008201527f636c650000000000000000000000000000000000000000000000000000000000602082015250565b7f45524332303a20696e73756666696369656e7420616c6c6f77616e6365000000600082015250565b7f4f6e6c792063616c6c61626c65206279206f776e657200000000000000000000600082015250565b7f45524332303a207472616e7366657220616d6f756e742065786365656473206260008201527f616c616e63650000000000000000000000000000000000000000000000000000602082015250565b7f4661696c656420746f2073656e64204574686572000000000000000000000000600082015250565b7f546865206d61746368206973206e6f742066696e697368207965740000000000600082015250565b7f6465706f7369745f737761704652746f42524100000000000000000000000000600082015250565b7f556e61626c6520746f207472616e736665720000000000000000000000000000600082015250565b7f5468657265206973206e6f7420456e6f75676874204d6174696320696e20746860008201527f6520436f6e747261637400000000000000000000000000000000000000000000602082015250565b7f45524332303a207472616e736665722066726f6d20746865207a65726f20616460008201527f6472657373000000000000000000000000000000000000000000000000000000602082015250565b50565b7f45524332303a20617070726f76652066726f6d20746865207a65726f2061646460008201527f7265737300000000000000000000000000000000000000000000000000000000602082015250565b7f43616e6e6f74207472616e7366657220746f2073656c66000000000000000000600082015250565b7f536f75726365206d75737420626520746865206f7261636c65206f662074686560008201527f2072657175657374000000000000000000000000000000000000000000000000602082015250565b7f596f75206469646e27742070726f7669646520616e792066756e647300000000600082015250565b7f45524332303a2064656372656173656420616c6c6f77616e63652062656c6f7760008201527f207a65726f000000000000000000000000000000000000000000000000000000602082015250565b614a39816143a1565b8114614a4457600080fd5b50565b614a50816143b3565b8114614a5b57600080fd5b50565b614a67816143bf565b8114614a7257600080fd5b50565b614a7e81614415565b8114614a8957600080fd5b5056fe68747470733a2f2f6170692e73706f727473646174612e696f2f76332f736f636365722f73636f7265732f6a736f6e2f47616d65734279446174652f323032322d31312d31353f6b65793d6135616363366363343464633437666339393138313938643239623333653030a26469706673582212203124b9a4aa6a40a9652c51fec18721483c5ea63105b4ba4827c79c70c756050b64736f6c63430008040033",
  "linkReferences": {},
  "deployedLinkReferences": {}
}