{
  "_format": "hh-sol-artifact-1",
  "contractName": "Swap",
  "sourceName": "contracts/Swap.sol",
  "abi": [
    {
      "inputs": [
        {
          "internalType": "address",
          "name": "_FranceTokenAddress",
          "type": "address"
        },
        {
          "internalType": "address",
          "name": "_BrasilTokenAddress",
          "type": "address"
        },
        {
          "internalType": "address",
          "name": "_LinkToken",
          "type": "address"
        },
        {
          "internalType": "address",
          "name": "_LinkOracle",
          "type": "address"
        }
      ],
      "stateMutability": "nonpayable",
      "type": "constructor"
    },
    {
      "anonymous": false,
      "inputs": [
        {
          "indexed": true,
          "internalType": "address",
          "name": "owner",
          "type": "address"
        },
        {
          "indexed": true,
          "internalType": "address",
          "name": "spender",
          "type": "address"
        },
        {
          "indexed": false,
          "internalType": "uint256",
          "name": "value",
          "type": "uint256"
        }
      ],
      "name": "Approval",
      "type": "event"
    },
    {
      "anonymous": false,
      "inputs": [
        {
          "indexed": true,
          "internalType": "bytes32",
          "name": "id",
          "type": "bytes32"
        }
      ],
      "name": "ChainlinkCancelled",
      "type": "event"
    },
    {
      "anonymous": false,
      "inputs": [
        {
          "indexed": true,
          "internalType": "bytes32",
          "name": "id",
          "type": "bytes32"
        }
      ],
      "name": "ChainlinkFulfilled",
      "type": "event"
    },
    {
      "anonymous": false,
      "inputs": [
        {
          "indexed": true,
          "internalType": "bytes32",
          "name": "id",
          "type": "bytes32"
        }
      ],
      "name": "ChainlinkRequested",
      "type": "event"
    },
    {
      "anonymous": false,
      "inputs": [
        {
          "indexed": true,
          "internalType": "address",
          "name": "userAddress",
          "type": "address"
        },
        {
          "indexed": false,
          "internalType": "uint256",
          "name": "amount",
          "type": "uint256"
        },
        {
          "indexed": false,
          "internalType": "uint256",
          "name": "tokenReceived",
          "type": "uint256"
        },
        {
          "indexed": false,
          "internalType": "string",
          "name": "functionName",
          "type": "string"
        }
      ],
      "name": "DepositMade",
      "type": "event"
    },
    {
      "anonymous": false,
      "inputs": [
        {
          "indexed": true,
          "internalType": "address",
          "name": "previousOwner",
          "type": "address"
        },
        {
          "indexed": true,
          "internalType": "address",
          "name": "newOwner",
          "type": "address"
        }
      ],
      "name": "OwnershipTransferred",
      "type": "event"
    },
    {
      "anonymous": false,
      "inputs": [
        {
          "indexed": true,
          "internalType": "bytes32",
          "name": "requestId",
          "type": "bytes32"
        },
        {
          "indexed": false,
          "internalType": "uint256",
          "name": "homeScore",
          "type": "uint256"
        },
        {
          "indexed": false,
          "internalType": "uint256",
          "name": "awayScore",
          "type": "uint256"
        }
      ],
      "name": "RequestMultipleFulfilled",
      "type": "event"
    },
    {
      "anonymous": false,
      "inputs": [
        {
          "indexed": true,
          "internalType": "address",
          "name": "from",
          "type": "address"
        },
        {
          "indexed": true,
          "internalType": "address",
          "name": "to",
          "type": "address"
        },
        {
          "indexed": false,
          "internalType": "uint256",
          "name": "value",
          "type": "uint256"
        }
      ],
      "name": "Transfer",
      "type": "event"
    },
    {
      "inputs": [],
      "name": "BrasilTokenAddress",
      "outputs": [
        {
          "internalType": "address",
          "name": "",
          "type": "address"
        }
      ],
      "stateMutability": "view",
      "type": "function"
    },
    {
      "inputs": [],
      "name": "FinalResult",
      "outputs": [
        {
          "internalType": "uint256",
          "name": "",
          "type": "uint256"
        }
      ],
      "stateMutability": "view",
      "type": "function"
    },
    {
      "inputs": [],
      "name": "FranceTokenAddress",
      "outputs": [
        {
          "internalType": "address",
          "name": "",
          "type": "address"
        }
      ],
      "stateMutability": "view",
      "type": "function"
    },
    {
      "inputs": [
        {
          "internalType": "uint256",
          "name": "_amountTeamA",
          "type": "uint256"
        },
        {
          "internalType": "uint256",
          "name": "_amountTeamB",
          "type": "uint256"
        }
      ],
      "name": "addLiquidity",
      "outputs": [],
      "stateMutability": "nonpayable",
      "type": "function"
    },
    {
      "inputs": [
        {
          "internalType": "address",
          "name": "owner",
          "type": "address"
        },
        {
          "internalType": "address",
          "name": "spender",
          "type": "address"
        }
      ],
      "name": "allowance",
      "outputs": [
        {
          "internalType": "uint256",
          "name": "",
          "type": "uint256"
        }
      ],
      "stateMutability": "view",
      "type": "function"
    },
    {
      "inputs": [
        {
          "internalType": "address",
          "name": "spender",
          "type": "address"
        },
        {
          "internalType": "uint256",
          "name": "amount",
          "type": "uint256"
        }
      ],
      "name": "approve",
      "outputs": [
        {
          "internalType": "bool",
          "name": "",
          "type": "bool"
        }
      ],
      "stateMutability": "nonpayable",
      "type": "function"
    },
    {
      "inputs": [],
      "name": "awayScore",
      "outputs": [
        {
          "internalType": "uint256",
          "name": "",
          "type": "uint256"
        }
      ],
      "stateMutability": "view",
      "type": "function"
    },
    {
      "inputs": [
        {
          "internalType": "address",
          "name": "account",
          "type": "address"
        }
      ],
      "name": "balanceOf",
      "outputs": [
        {
          "internalType": "uint256",
          "name": "",
          "type": "uint256"
        }
      ],
      "stateMutability": "view",
      "type": "function"
    },
    {
      "inputs": [],
      "name": "contractBalance",
      "outputs": [
        {
          "internalType": "uint256",
          "name": "",
          "type": "uint256"
        }
      ],
      "stateMutability": "view",
      "type": "function"
    },
    {
      "inputs": [],
      "name": "decimals",
      "outputs": [
        {
          "internalType": "uint8",
          "name": "",
          "type": "uint8"
        }
      ],
      "stateMutability": "view",
      "type": "function"
    },
    {
      "inputs": [
        {
          "internalType": "address",
          "name": "spender",
          "type": "address"
        },
        {
          "internalType": "uint256",
          "name": "subtractedValue",
          "type": "uint256"
        }
      ],
      "name": "decreaseAllowance",
      "outputs": [
        {
          "internalType": "bool",
          "name": "",
          "type": "bool"
        }
      ],
      "stateMutability": "nonpayable",
      "type": "function"
    },
    {
      "inputs": [],
      "name": "deposit_swapBRAtoFR",
      "outputs": [],
      "stateMutability": "payable",
      "type": "function"
    },
    {
      "inputs": [],
      "name": "deposit_swapFRtoBRA",
      "outputs": [],
      "stateMutability": "payable",
      "type": "function"
    },
    {
      "inputs": [
        {
          "internalType": "bytes32",
          "name": "requestId",
          "type": "bytes32"
        },
        {
          "internalType": "uint256",
          "name": "homeResponse",
          "type": "uint256"
        },
        {
          "internalType": "uint256",
          "name": "awayResponse",
          "type": "uint256"
        }
      ],
      "name": "fulfillMultipleParameters",
      "outputs": [],
      "stateMutability": "nonpayable",
      "type": "function"
    },
    {
      "inputs": [],
      "name": "gameOver",
      "outputs": [],
      "stateMutability": "nonpayable",
      "type": "function"
    },
    {
      "inputs": [],
      "name": "getBalanceWalletBrasil",
      "outputs": [
        {
          "internalType": "uint256",
          "name": "",
          "type": "uint256"
        }
      ],
      "stateMutability": "view",
      "type": "function"
    },
    {
      "inputs": [],
      "name": "getBalanceWalletFrance",
      "outputs": [
        {
          "internalType": "uint256",
          "name": "",
          "type": "uint256"
        }
      ],
      "stateMutability": "view",
      "type": "function"
    },
    {
      "inputs": [],
      "name": "getReserveBrasil",
      "outputs": [
        {
          "internalType": "uint256",
          "name": "",
          "type": "uint256"
        }
      ],
      "stateMutability": "view",
      "type": "function"
    },
    {
      "inputs": [],
      "name": "getReserveFrance",
      "outputs": [
        {
          "internalType": "uint256",
          "name": "",
          "type": "uint256"
        }
      ],
      "stateMutability": "view",
      "type": "function"
    },
    {
      "inputs": [],
      "name": "homeScore",
      "outputs": [
        {
          "internalType": "uint256",
          "name": "",
          "type": "uint256"
        }
      ],
      "stateMutability": "view",
      "type": "function"
    },
    {
      "inputs": [
        {
          "internalType": "address",
          "name": "spender",
          "type": "address"
        },
        {
          "internalType": "uint256",
          "name": "addedValue",
          "type": "uint256"
        }
      ],
      "name": "increaseAllowance",
      "outputs": [
        {
          "internalType": "bool",
          "name": "",
          "type": "bool"
        }
      ],
      "stateMutability": "nonpayable",
      "type": "function"
    },
    {
      "inputs": [],
      "name": "name",
      "outputs": [
        {
          "internalType": "string",
          "name": "",
          "type": "string"
        }
      ],
      "stateMutability": "view",
      "type": "function"
    },
    {
      "inputs": [],
      "name": "ownTokenContracts",
      "outputs": [],
      "stateMutability": "nonpayable",
      "type": "function"
    },
    {
      "inputs": [],
      "name": "owner",
      "outputs": [
        {
          "internalType": "address",
          "name": "",
          "type": "address"
        }
      ],
      "stateMutability": "view",
      "type": "function"
    },
    {
      "inputs": [],
      "name": "removeLiquidity",
      "outputs": [],
      "stateMutability": "nonpayable",
      "type": "function"
    },
    {
      "inputs": [],
      "name": "renounceOwnership",
      "outputs": [],
      "stateMutability": "nonpayable",
      "type": "function"
    },
    {
      "inputs": [],
      "name": "requestMultipleParameters",
      "outputs": [],
      "stateMutability": "nonpayable",
      "type": "function"
    },
    {
      "inputs": [],
      "name": "symbol",
      "outputs": [
        {
          "internalType": "string",
          "name": "",
          "type": "string"
        }
      ],
      "stateMutability": "view",
      "type": "function"
    },
    {
      "inputs": [],
      "name": "totalSupply",
      "outputs": [
        {
          "internalType": "uint256",
          "name": "",
          "type": "uint256"
        }
      ],
      "stateMutability": "view",
      "type": "function"
    },
    {
      "inputs": [
        {
          "internalType": "address",
          "name": "to",
          "type": "address"
        },
        {
          "internalType": "uint256",
          "name": "amount",
          "type": "uint256"
        }
      ],
      "name": "transfer",
      "outputs": [
        {
          "internalType": "bool",
          "name": "",
          "type": "bool"
        }
      ],
      "stateMutability": "nonpayable",
      "type": "function"
    },
    {
      "inputs": [
        {
          "internalType": "address",
          "name": "from",
          "type": "address"
        },
        {
          "internalType": "address",
          "name": "to",
          "type": "address"
        },
        {
          "internalType": "uint256",
          "name": "amount",
          "type": "uint256"
        }
      ],
      "name": "transferFrom",
      "outputs": [
        {
          "internalType": "bool",
          "name": "",
          "type": "bool"
        }
      ],
      "stateMutability": "nonpayable",
      "type": "function"
    },
    {
      "inputs": [
        {
          "internalType": "address",
          "name": "newOwner",
          "type": "address"
        }
      ],
      "name": "transferOwnership",
      "outputs": [],
      "stateMutability": "nonpayable",
      "type": "function"
    },
    {
      "inputs": [],
      "name": "walletBalance",
      "outputs": [
        {
          "internalType": "uint256",
          "name": "",
          "type": "uint256"
        }
      ],
      "stateMutability": "view",
      "type": "function"
    },
    {
      "inputs": [],
      "name": "withdrawLink",
      "outputs": [],
      "stateMutability": "nonpayable",
      "type": "function"
    }
  ],
  "bytecode": "0x60806040526001600a5560006012553480156200001b57600080fd5b5060405162004fa538038062004fa583398181016040528101906200004191906200041e565b6040518060400160405280600f81526020017f4c697175696469747920546f6b656e00000000000000000000000000000000008152506040518060400160405280600381526020017f4c505400000000000000000000000000000000000000000000000000000000008152508160039080519060200190620000c592919062000357565b508060049080519060200190620000de92919062000357565b50505062000101620000f56200020160201b60201c565b6200020960201b60201c565b7f6661333830323365343461383462363338346339343131343031393034393937600e819055506200013982620002cf60201b60201c565b6200014a816200031360201b60201c565b600a670de0b6b3a76400006001620001639190620004c2565b6200016f91906200048a565b600f8190555083600c60006101000a81548173ffffffffffffffffffffffffffffffffffffffff021916908373ffffffffffffffffffffffffffffffffffffffff16021790555082600d60006101000a81548173ffffffffffffffffffffffffffffffffffffffff021916908373ffffffffffffffffffffffffffffffffffffffff160217905550505050506200063e565b600033905090565b6000600560009054906101000a900473ffffffffffffffffffffffffffffffffffffffff16905081600560006101000a81548173ffffffffffffffffffffffffffffffffffffffff021916908373ffffffffffffffffffffffffffffffffffffffff1602179055508173ffffffffffffffffffffffffffffffffffffffff168173ffffffffffffffffffffffffffffffffffffffff167f8be0079c531659141344cd1fd0a4f28419497f9722a3daafe3b4186f6b6457e060405160405180910390a35050565b80600860006101000a81548173ffffffffffffffffffffffffffffffffffffffff021916908373ffffffffffffffffffffffffffffffffffffffff16021790555050565b80600960006101000a81548173ffffffffffffffffffffffffffffffffffffffff021916908373ffffffffffffffffffffffffffffffffffffffff16021790555050565b828054620003659062000561565b90600052602060002090601f016020900481019282620003895760008555620003d5565b82601f10620003a457805160ff1916838001178555620003d5565b82800160010185558215620003d5579182015b82811115620003d4578251825591602001919060010190620003b7565b5b509050620003e49190620003e8565b5090565b5b8082111562000403576000816000905550600101620003e9565b5090565b600081519050620004188162000624565b92915050565b600080600080608085870312156200043557600080fd5b6000620004458782880162000407565b9450506020620004588782880162000407565b93505060406200046b8782880162000407565b92505060606200047e8782880162000407565b91505092959194509250565b6000620004978262000557565b9150620004a48362000557565b925082620004b757620004b6620005c6565b5b828204905092915050565b6000620004cf8262000557565b9150620004dc8362000557565b9250817fffffffffffffffffffffffffffffffffffffffffffffffffffffffffffffffff048311821515161562000518576200051762000597565b5b828202905092915050565b6000620005308262000537565b9050919050565b600073ffffffffffffffffffffffffffffffffffffffff82169050919050565b6000819050919050565b600060028204905060018216806200057a57607f821691505b60208210811415620005915762000590620005f5565b5b50919050565b7f4e487b7100000000000000000000000000000000000000000000000000000000600052601160045260246000fd5b7f4e487b7100000000000000000000000000000000000000000000000000000000600052601260045260246000fd5b7f4e487b7100000000000000000000000000000000000000000000000000000000600052602260045260246000fd5b6200062f8162000523565b81146200063b57600080fd5b50565b614957806200064e6000396000f3fe6080604052600436106101f95760003560e01c8063715018a61161010d578063a9059cbb116100a0578063d1d6a2d61161006f578063d1d6a2d61461068b578063d38d9639146106b6578063dd62ed3e146106e1578063f2fde38b1461071e578063fa4be62214610747576101f9565b8063a9059cbb146105e1578063b3af31241461061e578063bdb337d114610649578063cd0a314b14610660576101f9565b806394b3886c116100dc57806394b3886c1461052557806395d89b41146105505780639cd441da1461057b578063a457c2d7146105a4576101f9565b8063715018a6146104a15780638b7afe2e146104b85780638da5cb5b146104e35780638dc654a21461050e576101f9565b806337d36fef116101905780634795db521161015f5780634795db52146103e05780634a3afb471461040b57806367b9a286146104225780636db5fc9c1461043957806370a0823114610464576101f9565b806337d36fef1461033857806339509351146103615780633a3af1701461039e578063422f8edf146103c9576101f9565b806329e8dbee116101cc57806329e8dbee146102ce5780632fa70b73146102d8578063313ce567146102e257806334a5462c1461030d576101f9565b806306fdde03146101fe578063095ea7b31461022957806318160ddd1461026657806323b872dd14610291575b600080fd5b34801561020a57600080fd5b50610213610772565b6040516102209190613c0c565b60405180910390f35b34801561023557600080fd5b50610250600480360381019061024b91906135c6565b610804565b60405161025d9190613bf1565b60405180910390f35b34801561027257600080fd5b5061027b610827565b6040516102889190613e2e565b60405180910390f35b34801561029d57600080fd5b506102b860048036038101906102b39190613577565b610831565b6040516102c59190613bf1565b60405180910390f35b6102d6610860565b005b6102e0610bc1565b005b3480156102ee57600080fd5b506102f7610f22565b6040516103049190613eea565b60405180910390f35b34801561031957600080fd5b50610322610f2b565b60405161032f9190613e2e565b60405180910390f35b34801561034457600080fd5b5061035f600480360381019061035a919061362b565b610f31565b005b34801561036d57600080fd5b50610388600480360381019061038391906135c6565b6110c0565b6040516103959190613bf1565b60405180910390f35b3480156103aa57600080fd5b506103b36110f7565b6040516103c09190613e2e565b60405180910390f35b3480156103d557600080fd5b506103de6111ae565b005b3480156103ec57600080fd5b506103f56112bc565b6040516104029190613e2e565b60405180910390f35b34801561041757600080fd5b50610420611373565b005b34801561042e57600080fd5b506104376114fb565b005b34801561044557600080fd5b5061044e611673565b60405161045b9190613e2e565b60405180910390f35b34801561047057600080fd5b5061048b60048036038101906104869190613512565b611679565b6040516104989190613e2e565b60405180910390f35b3480156104ad57600080fd5b506104b66116c1565b005b3480156104c457600080fd5b506104cd6116d5565b6040516104da9190613e2e565b60405180910390f35b3480156104ef57600080fd5b506104f86116dd565b6040516105059190613ab3565b60405180910390f35b34801561051a57600080fd5b50610523611707565b005b34801561053157600080fd5b5061053a611872565b6040516105479190613e2e565b60405180910390f35b34801561055c57600080fd5b50610565611929565b6040516105729190613c0c565b60405180910390f35b34801561058757600080fd5b506105a2600480360381019061059d91906136a3565b6119bb565b005b3480156105b057600080fd5b506105cb60048036038101906105c691906135c6565b611b2b565b6040516105d89190613bf1565b60405180910390f35b3480156105ed57600080fd5b50610608600480360381019061060391906135c6565b611ba2565b6040516106159190613bf1565b60405180910390f35b34801561062a57600080fd5b50610633611bc5565b6040516106409190613ab3565b60405180910390f35b34801561065557600080fd5b5061065e611beb565b005b34801561066c57600080fd5b50610675612376565b6040516106829190613e2e565b60405180910390f35b34801561069757600080fd5b506106a0612395565b6040516106ad9190613e2e565b60405180910390f35b3480156106c257600080fd5b506106cb61244c565b6040516106d89190613e2e565b60405180910390f35b3480156106ed57600080fd5b506107086004803603810190610703919061353b565b612452565b6040516107159190613e2e565b60405180910390f35b34801561072a57600080fd5b5061074560048036038101906107409190613512565b6124d9565b005b34801561075357600080fd5b5061075c61255d565b6040516107699190613ab3565b60405180910390f35b606060038054610781906142b0565b80601f01602080910402602001604051908101604052809291908181526020018280546107ad906142b0565b80156107fa5780601f106107cf576101008083540402835291602001916107fa565b820191906000526020600020905b8154815290600101906020018083116107dd57829003601f168201915b5050505050905090565b60008061080f612583565b905061081c81858561258b565b600191505092915050565b6000600254905090565b60008061083c612583565b9050610849858285612756565b6108548585856127e2565b60019150509392505050565b600034116108a3576040517f08c379a000000000000000000000000000000000000000000000000000000000815260040161089a90613dee565b60405180910390fd5b600c60009054906101000a900473ffffffffffffffffffffffffffffffffffffffff1673ffffffffffffffffffffffffffffffffffffffff166340c10f1933346040518363ffffffff1660e01b8152600401610900929190613b05565b600060405180830381600087803b15801561091a57600080fd5b505af115801561092e573d6000803e3d6000fd5b50505050600d60009054906101000a900473ffffffffffffffffffffffffffffffffffffffff1673ffffffffffffffffffffffffffffffffffffffff166340c10f1933346040518363ffffffff1660e01b815260040161098f929190613b05565b600060405180830381600087803b1580156109a957600080fd5b505af11580156109bd573d6000803e3d6000fd5b50505050600c60009054906101000a900473ffffffffffffffffffffffffffffffffffffffff1673ffffffffffffffffffffffffffffffffffffffff166323b872dd3330346040518463ffffffff1660e01b8152600401610a2093929190613ace565b602060405180830381600087803b158015610a3a57600080fd5b505af1158015610a4e573d6000803e3d6000fd5b505050506040513d601f19601f82011682018060405250810190610a729190613602565b50600034610a7e611872565b610a88919061419a565b90506000610a946110f7565b905060003483610aa49190613f48565b8234610ab09190614140565b610aba9190613f9e565b9050600d60009054906101000a900473ffffffffffffffffffffffffffffffffffffffff1673ffffffffffffffffffffffffffffffffffffffff1663a9059cbb33836040518363ffffffff1660e01b8152600401610b19929190613b05565b602060405180830381600087803b158015610b3357600080fd5b505af1158015610b47573d6000803e3d6000fd5b505050506040513d601f19601f82011682018060405250810190610b6b9190613602565b503373ffffffffffffffffffffffffffffffffffffffff167feff24ae1a526a59e44052f06c0e3fc3e2328bc71d8eaadc772a1a42ce563f3313483604051610bb4929190613eae565b60405180910390a2505050565b60003411610c04576040517f08c379a0000000000000000000000000000000000000000000000000000000008152600401610bfb90613dee565b60405180910390fd5b600c60009054906101000a900473ffffffffffffffffffffffffffffffffffffffff1673ffffffffffffffffffffffffffffffffffffffff166340c10f1933346040518363ffffffff1660e01b8152600401610c61929190613b05565b600060405180830381600087803b158015610c7b57600080fd5b505af1158015610c8f573d6000803e3d6000fd5b50505050600d60009054906101000a900473ffffffffffffffffffffffffffffffffffffffff1673ffffffffffffffffffffffffffffffffffffffff166340c10f1933346040518363ffffffff1660e01b8152600401610cf0929190613b05565b600060405180830381600087803b158015610d0a57600080fd5b505af1158015610d1e573d6000803e3d6000fd5b50505050600d60009054906101000a900473ffffffffffffffffffffffffffffffffffffffff1673ffffffffffffffffffffffffffffffffffffffff166323b872dd3330346040518463ffffffff1660e01b8152600401610d8193929190613ace565b602060405180830381600087803b158015610d9b57600080fd5b505af1158015610daf573d6000803e3d6000fd5b505050506040513d601f19601f82011682018060405250810190610dd39190613602565b506000610dde611872565b9050600034610deb6110f7565b610df5919061419a565b905060003482610e059190613f48565b8334610e119190614140565b610e1b9190613f9e565b9050600c60009054906101000a900473ffffffffffffffffffffffffffffffffffffffff1673ffffffffffffffffffffffffffffffffffffffff1663a9059cbb33836040518363ffffffff1660e01b8152600401610e7a929190613b05565b602060405180830381600087803b158015610e9457600080fd5b505af1158015610ea8573d6000803e3d6000fd5b505050506040513d601f19601f82011682018060405250810190610ecc9190613602565b503373ffffffffffffffffffffffffffffffffffffffff167feff24ae1a526a59e44052f06c0e3fc3e2328bc71d8eaadc772a1a42ce563f3313483604051610f15929190613e72565b60405180910390a2505050565b60006012905090565b60125481565b82600b600082815260200190815260200160002060009054906101000a900473ffffffffffffffffffffffffffffffffffffffff1673ffffffffffffffffffffffffffffffffffffffff163373ffffffffffffffffffffffffffffffffffffffff1614610fd3576040517f08c379a0000000000000000000000000000000000000000000000000000000008152600401610fca90613dce565b60405180910390fd5b600b600082815260200190815260200160002060006101000a81549073ffffffffffffffffffffffffffffffffffffffff0219169055807f7cc135e0cebb02c3480ae5d74d377283180a2601f8f644edf7987b009316c63a60405160405180910390a2837f654e38d2a93112689c11f1c8b02342b0e0adab42ec9f0d00ea593cf9dd9ef8eb8484604051611068929190613e49565b60405180910390a2826010819055508160118190555060115460105411156110975760016012819055506110ba565b60115460105414156110b05760026012819055506110b9565b60036012819055505b5b50505050565b6000806110cb612583565b90506110ec8185856110dd8589612452565b6110e79190613f48565b61258b565b600191505092915050565b600080600d60009054906101000a900473ffffffffffffffffffffffffffffffffffffffff1673ffffffffffffffffffffffffffffffffffffffff166370a08231306040518263ffffffff1660e01b81526004016111559190613ab3565b60206040518083038186803b15801561116d57600080fd5b505afa158015611181573d6000803e3d6000fd5b505050506040513d601f19601f820116820180604052508101906111a5919061367a565b90508091505090565b6111b6612a63565b600c60009054906101000a900473ffffffffffffffffffffffffffffffffffffffff1673ffffffffffffffffffffffffffffffffffffffff166398faf2cb6040518163ffffffff1660e01b8152600401600060405180830381600087803b15801561122057600080fd5b505af1158015611234573d6000803e3d6000fd5b50505050600d60009054906101000a900473ffffffffffffffffffffffffffffffffffffffff1673ffffffffffffffffffffffffffffffffffffffff166398faf2cb6040518163ffffffff1660e01b8152600401600060405180830381600087803b1580156112a257600080fd5b505af11580156112b6573d6000803e3d6000fd5b50505050565b600080600c60009054906101000a900473ffffffffffffffffffffffffffffffffffffffff1673ffffffffffffffffffffffffffffffffffffffff166370a08231336040518263ffffffff1660e01b815260040161131a9190613ab3565b60206040518083038186803b15801561133257600080fd5b505afa158015611346573d6000803e3d6000fd5b505050506040513d601f19601f8201168201806040525081019061136a919061367a565b90508091505090565b6000611389600e54306337d36fef60e01b612ae1565b90506113ed6040518060400160405280600981526020017f75726c524553554c5400000000000000000000000000000000000000000000008152506040518060a00160405280606b81526020016148b7606b913983612b129092919063ffffffff16565b61146c6040518060400160405280600881526020017f70617468484f4d450000000000000000000000000000000000000000000000008152506040518060400160405280600f81526020017f302c486f6d655465616d53636f7265000000000000000000000000000000000081525083612b129092919063ffffffff16565b6114eb6040518060400160405280600881526020017f70617468415741590000000000000000000000000000000000000000000000008152506040518060400160405280600f81526020017f302c417761795465616d53636f7265000000000000000000000000000000000081525083612b129092919063ffffffff16565b6114f781600f54612b45565b5050565b611503612a63565b600d60009054906101000a900473ffffffffffffffffffffffffffffffffffffffff1673ffffffffffffffffffffffffffffffffffffffff1663a9059cbb3361154a6110f7565b6040518363ffffffff1660e01b8152600401611567929190613b05565b602060405180830381600087803b15801561158157600080fd5b505af1158015611595573d6000803e3d6000fd5b505050506040513d601f19601f820116820180604052508101906115b99190613602565b50600c60009054906101000a900473ffffffffffffffffffffffffffffffffffffffff1673ffffffffffffffffffffffffffffffffffffffff1663a9059cbb33611601611872565b6040518363ffffffff1660e01b815260040161161e929190613b05565b602060405180830381600087803b15801561163857600080fd5b505af115801561164c573d6000803e3d6000fd5b505050506040513d601f19601f820116820180604052508101906116709190613602565b50565b60105481565b60008060008373ffffffffffffffffffffffffffffffffffffffff1673ffffffffffffffffffffffffffffffffffffffff168152602001908152602001600020549050919050565b6116c9612a63565b6116d36000612b7c565b565b600047905090565b6000600560009054906101000a900473ffffffffffffffffffffffffffffffffffffffff16905090565b61170f612a63565b6000611719612c42565b90508073ffffffffffffffffffffffffffffffffffffffff1663a9059cbb338373ffffffffffffffffffffffffffffffffffffffff166370a08231306040518263ffffffff1660e01b81526004016117719190613ab3565b60206040518083038186803b15801561178957600080fd5b505afa15801561179d573d6000803e3d6000fd5b505050506040513d601f19601f820116820180604052508101906117c1919061367a565b6040518363ffffffff1660e01b81526004016117de929190613b05565b602060405180830381600087803b1580156117f857600080fd5b505af115801561180c573d6000803e3d6000fd5b505050506040513d601f19601f820116820180604052508101906118309190613602565b61186f576040517f08c379a000000000000000000000000000000000000000000000000000000000815260040161186690613d2e565b60405180910390fd5b50565b600080600c60009054906101000a900473ffffffffffffffffffffffffffffffffffffffff1673ffffffffffffffffffffffffffffffffffffffff166370a08231306040518263ffffffff1660e01b81526004016118d09190613ab3565b60206040518083038186803b1580156118e857600080fd5b505afa1580156118fc573d6000803e3d6000fd5b505050506040513d601f19601f82011682018060405250810190611920919061367a565b90508091505090565b606060048054611938906142b0565b80601f0160208091040260200160405190810160405280929190818152602001828054611964906142b0565b80156119b15780601f10611986576101008083540402835291602001916119b1565b820191906000526020600020905b81548152906001019060200180831161199457829003601f168201915b5050505050905090565b6119c3612a63565b600c60009054906101000a900473ffffffffffffffffffffffffffffffffffffffff1673ffffffffffffffffffffffffffffffffffffffff166323b872dd3330856040518463ffffffff1660e01b8152600401611a2293929190613ace565b602060405180830381600087803b158015611a3c57600080fd5b505af1158015611a50573d6000803e3d6000fd5b505050506040513d601f19601f82011682018060405250810190611a749190613602565b50600d60009054906101000a900473ffffffffffffffffffffffffffffffffffffffff1673ffffffffffffffffffffffffffffffffffffffff166323b872dd3330846040518463ffffffff1660e01b8152600401611ad493929190613ace565b602060405180830381600087803b158015611aee57600080fd5b505af1158015611b02573d6000803e3d6000fd5b505050506040513d601f19601f82011682018060405250810190611b269190613602565b505050565b600080611b36612583565b90506000611b448286612452565b905083811015611b89576040517f08c379a0000000000000000000000000000000000000000000000000000000008152600401611b8090613e0e565b60405180910390fd5b611b96828686840361258b565b60019250505092915050565b600080611bad612583565b9050611bba8185856127e2565b600191505092915050565b600d60009054906101000a900473ffffffffffffffffffffffffffffffffffffffff1681565b600060125411611c30576040517f08c379a0000000000000000000000000000000000000000000000000000000008152600401611c2790613d0e565b60405180910390fd5b6000611c3a6112bc565b90506000611c46612395565b905060016012541415611eb9576000829050611c606116d5565b831015611ca2576040517f08c379a0000000000000000000000000000000000000000000000000000000008152600401611c9990613d6e565b60405180910390fd5b600c60009054906101000a900473ffffffffffffffffffffffffffffffffffffffff1673ffffffffffffffffffffffffffffffffffffffff166323b872dd3330866040518463ffffffff1660e01b8152600401611d0193929190613ace565b602060405180830381600087803b158015611d1b57600080fd5b505af1158015611d2f573d6000803e3d6000fd5b505050506040513d601f19601f82011682018060405250810190611d539190613602565b50600d60009054906101000a900473ffffffffffffffffffffffffffffffffffffffff1673ffffffffffffffffffffffffffffffffffffffff166323b872dd3330856040518463ffffffff1660e01b8152600401611db393929190613ace565b602060405180830381600087803b158015611dcd57600080fd5b505af1158015611de1573d6000803e3d6000fd5b505050506040513d601f19601f82011682018060405250810190611e059190613602565b5060003373ffffffffffffffffffffffffffffffffffffffff1682604051611e2c90613a9e565b60006040518083038185875af1925050503d8060008114611e69576040519150601f19603f3d011682016040523d82523d6000602084013e611e6e565b606091505b5050905080611eb2576040517f08c379a0000000000000000000000000000000000000000000000000000000008152600401611ea990613cee565b60405180910390fd5b5050612372565b6003601254141561212a576000819050611ed16116d5565b821015611f13576040517f08c379a0000000000000000000000000000000000000000000000000000000008152600401611f0a90613d6e565b60405180910390fd5b600d60009054906101000a900473ffffffffffffffffffffffffffffffffffffffff1673ffffffffffffffffffffffffffffffffffffffff166323b872dd3330856040518463ffffffff1660e01b8152600401611f7293929190613ace565b602060405180830381600087803b158015611f8c57600080fd5b505af1158015611fa0573d6000803e3d6000fd5b505050506040513d601f19601f82011682018060405250810190611fc49190613602565b50600c60009054906101000a900473ffffffffffffffffffffffffffffffffffffffff1673ffffffffffffffffffffffffffffffffffffffff166323b872dd3330866040518463ffffffff1660e01b815260040161202493929190613ace565b602060405180830381600087803b15801561203e57600080fd5b505af1158015612052573d6000803e3d6000fd5b505050506040513d601f19601f820116820180604052508101906120769190613602565b5060003373ffffffffffffffffffffffffffffffffffffffff168260405161209d90613a9e565b60006040518083038185875af1925050503d80600081146120da576040519150601f19603f3d011682016040523d82523d6000602084013e6120df565b606091505b5050905080612123576040517f08c379a000000000000000000000000000000000000000000000000000000000815260040161211a90613cee565b60405180910390fd5b5050612371565b6002601254141561237057600082905060008290506000828261214d9190613f48565b9050600c60009054906101000a900473ffffffffffffffffffffffffffffffffffffffff1673ffffffffffffffffffffffffffffffffffffffff166323b872dd3330886040518463ffffffff1660e01b81526004016121ae93929190613ace565b602060405180830381600087803b1580156121c857600080fd5b505af11580156121dc573d6000803e3d6000fd5b505050506040513d601f19601f820116820180604052508101906122009190613602565b50600d60009054906101000a900473ffffffffffffffffffffffffffffffffffffffff1673ffffffffffffffffffffffffffffffffffffffff166323b872dd3330876040518463ffffffff1660e01b815260040161226093929190613ace565b602060405180830381600087803b15801561227a57600080fd5b505af115801561228e573d6000803e3d6000fd5b505050506040513d601f19601f820116820180604052508101906122b29190613602565b5060003373ffffffffffffffffffffffffffffffffffffffff166002836122d99190613f9e565b6040516122e590613a9e565b60006040518083038185875af1925050503d8060008114612322576040519150601f19603f3d011682016040523d82523d6000602084013e612327565b606091505b505090508061236b576040517f08c379a000000000000000000000000000000000000000000000000000000000815260040161236290613cee565b60405180910390fd5b505050505b5b5b5050565b60003373ffffffffffffffffffffffffffffffffffffffff1631905090565b600080600d60009054906101000a900473ffffffffffffffffffffffffffffffffffffffff1673ffffffffffffffffffffffffffffffffffffffff166370a08231336040518263ffffffff1660e01b81526004016123f39190613ab3565b60206040518083038186803b15801561240b57600080fd5b505afa15801561241f573d6000803e3d6000fd5b505050506040513d601f19601f82011682018060405250810190612443919061367a565b90508091505090565b60115481565b6000600160008473ffffffffffffffffffffffffffffffffffffffff1673ffffffffffffffffffffffffffffffffffffffff16815260200190815260200160002060008373ffffffffffffffffffffffffffffffffffffffff1673ffffffffffffffffffffffffffffffffffffffff16815260200190815260200160002054905092915050565b6124e1612a63565b600073ffffffffffffffffffffffffffffffffffffffff168173ffffffffffffffffffffffffffffffffffffffff161415612551576040517f08c379a000000000000000000000000000000000000000000000000000000000815260040161254890613c4e565b60405180910390fd5b61255a81612b7c565b50565b600c60009054906101000a900473ffffffffffffffffffffffffffffffffffffffff1681565b600033905090565b600073ffffffffffffffffffffffffffffffffffffffff168373ffffffffffffffffffffffffffffffffffffffff1614156125fb576040517f08c379a00000000000000000000000000000000000000000000000000000000081526004016125f290613dae565b60405180910390fd5b600073ffffffffffffffffffffffffffffffffffffffff168273ffffffffffffffffffffffffffffffffffffffff16141561266b576040517f08c379a000000000000000000000000000000000000000000000000000000000815260040161266290613c6e565b60405180910390fd5b80600160008573ffffffffffffffffffffffffffffffffffffffff1673ffffffffffffffffffffffffffffffffffffffff16815260200190815260200160002060008473ffffffffffffffffffffffffffffffffffffffff1673ffffffffffffffffffffffffffffffffffffffff168152602001908152602001600020819055508173ffffffffffffffffffffffffffffffffffffffff168373ffffffffffffffffffffffffffffffffffffffff167f8c5be1e5ebec7d5bd14f71427d1e84f3dd0314c0f7b2291e5b200ac8c7c3b925836040516127499190613e2e565b60405180910390a3505050565b60006127628484612452565b90507fffffffffffffffffffffffffffffffffffffffffffffffffffffffffffffffff81146127dc57818110156127ce576040517f08c379a00000000000000000000000000000000000000000000000000000000081526004016127c590613cae565b60405180910390fd5b6127db848484840361258b565b5b50505050565b600073ffffffffffffffffffffffffffffffffffffffff168373ffffffffffffffffffffffffffffffffffffffff161415612852576040517f08c379a000000000000000000000000000000000000000000000000000000000815260040161284990613d8e565b60405180910390fd5b600073ffffffffffffffffffffffffffffffffffffffff168273ffffffffffffffffffffffffffffffffffffffff1614156128c2576040517f08c379a00000000000000000000000000000000000000000000000000000000081526004016128b990613c2e565b60405180910390fd5b6128cd838383612c6c565b60008060008573ffffffffffffffffffffffffffffffffffffffff1673ffffffffffffffffffffffffffffffffffffffff16815260200190815260200160002054905081811015612953576040517f08c379a000000000000000000000000000000000000000000000000000000000815260040161294a90613cce565b60405180910390fd5b8181036000808673ffffffffffffffffffffffffffffffffffffffff1673ffffffffffffffffffffffffffffffffffffffff16815260200190815260200160002081905550816000808573ffffffffffffffffffffffffffffffffffffffff1673ffffffffffffffffffffffffffffffffffffffff16815260200190815260200160002060008282546129e69190613f48565b925050819055508273ffffffffffffffffffffffffffffffffffffffff168473ffffffffffffffffffffffffffffffffffffffff167fddf252ad1be2c89b69c2b068fc378daa952ba7f163c4a11628f55a4df523b3ef84604051612a4a9190613e2e565b60405180910390a3612a5d848484612c71565b50505050565b612a6b612583565b73ffffffffffffffffffffffffffffffffffffffff16612a896116dd565b73ffffffffffffffffffffffffffffffffffffffff1614612adf576040517f08c379a0000000000000000000000000000000000000000000000000000000008152600401612ad690613d4e565b60405180910390fd5b565b612ae9613422565b612af1613422565b612b0885858584612c76909392919063ffffffff16565b9150509392505050565b612b29828460800151612d2690919063ffffffff16565b612b40818460800151612d2690919063ffffffff16565b505050565b6000612b74600960009054906101000a900473ffffffffffffffffffffffffffffffffffffffff168484612d4b565b905092915050565b6000600560009054906101000a900473ffffffffffffffffffffffffffffffffffffffff16905081600560006101000a81548173ffffffffffffffffffffffffffffffffffffffff021916908373ffffffffffffffffffffffffffffffffffffffff1602179055508173ffffffffffffffffffffffffffffffffffffffff168173ffffffffffffffffffffffffffffffffffffffff167f8be0079c531659141344cd1fd0a4f28419497f9722a3daafe3b4186f6b6457e060405160405180910390a35050565b6000600860009054906101000a900473ffffffffffffffffffffffffffffffffffffffff16905090565b505050565b505050565b612c7e613422565b612c8e8560800151610100612e17565b508385600001818152505082856020019073ffffffffffffffffffffffffffffffffffffffff16908173ffffffffffffffffffffffffffffffffffffffff16815250508185604001907bffffffffffffffffffffffffffffffffffffffffffffffffffffffff191690817bffffffffffffffffffffffffffffffffffffffffffffffffffffffff191681525050849050949350505050565b612d338260038351612e81565b612d46818361300690919063ffffffff16565b505050565b600080600a549050600181612d609190613f48565b600a819055506000634042994660e01b60008087600001513089604001518760018c6080015160000151604051602401612da1989796959493929190613b2e565b604051602081830303815290604052907bffffffffffffffffffffffffffffffffffffffffffffffffffffffff19166020820180517bffffffffffffffffffffffffffffffffffffffffffffffffffffffff83818316178352505050509050612e0c86838684613028565b925050509392505050565b612e1f61348f565b6000602083612e2e9190614310565b14612e5a57602082612e409190614310565b6020612e4c919061419a565b82612e579190613f48565b91505b81836020018181525050604051808452600081528281016020016040525082905092915050565b60178167ffffffffffffffff1611612eb857612eb28160058460ff16901b60ff1617846131cc90919063ffffffff16565b50613001565b60ff8167ffffffffffffffff1611612f0e57612ee7601860058460ff16901b17846131cc90919063ffffffff16565b50612f088167ffffffffffffffff166001856131ec9092919063ffffffff16565b50613000565b61ffff8167ffffffffffffffff1611612f6557612f3e601960058460ff16901b17846131cc90919063ffffffff16565b50612f5f8167ffffffffffffffff166002856131ec9092919063ffffffff16565b50612fff565b63ffffffff8167ffffffffffffffff1611612fbe57612f97601a60058460ff16901b17846131cc90919063ffffffff16565b50612fb88167ffffffffffffffff166004856131ec9092919063ffffffff16565b50612ffe565b612fdb601b60058460ff16901b17846131cc90919063ffffffff16565b50612ffc8167ffffffffffffffff166008856131ec9092919063ffffffff16565b505b5b5b5b505050565b61300e61348f565b6130208384600001515184855161320e565b905092915050565b6000308460405160200161303d929190613a72565b60405160208183030381529060405280519060200120905084600b600083815260200190815260200160002060006101000a81548173ffffffffffffffffffffffffffffffffffffffff021916908373ffffffffffffffffffffffffffffffffffffffff160217905550807fb5e6e01e79f91267dc17b4e6314d5d4d03593d2ceee0fbb452b750bd70ea5af960405160405180910390a2600860009054906101000a900473ffffffffffffffffffffffffffffffffffffffff1673ffffffffffffffffffffffffffffffffffffffff16634000aea08685856040518463ffffffff1660e01b815260040161313393929190613bb3565b602060405180830381600087803b15801561314d57600080fd5b505af1158015613161573d6000803e3d6000fd5b505050506040513d601f19601f820116820180604052508101906131859190613602565b6131c4576040517f08c379a00000000000000000000000000000000000000000000000000000000081526004016131bb90613c8e565b60405180910390fd5b949350505050565b6131d461348f565b6131e483846000015151846132fd565b905092915050565b6131f461348f565b613205848560000151518585613354565b90509392505050565b61321661348f565b825182111561322457600080fd5b846020015182856132359190613f48565b111561326a5761326985600261325a886020015188876132559190613f48565b6133e2565b6132649190614140565b6133fe565b5b6000808651805187602083010193508088870111156132895787860182525b60208701925050505b602084106132d057805182526020826132ab9190613f48565b91506020816132ba9190613f48565b90506020846132c9919061419a565b9350613292565b60006001856020036101000a03905080198251168184511681811785525050508692505050949350505050565b61330561348f565b8360200151831061332b5761332a84600286602001516133259190614140565b6133fe565b5b8351805160208583010184815381861415613347576001820183525b5050508390509392505050565b61335c61348f565b8460200151848361336d9190613f48565b11156133955761339485600286856133859190613f48565b61338f9190614140565b6133fe565b5b60006001836101006133a79190614022565b6133b1919061419a565b905085518386820101858319825116178152815185880111156133d45784870182525b505085915050949350505050565b6000818311156133f4578290506133f8565b8190505b92915050565b6000826000015190506134118383612e17565b5061341c8382613006565b50505050565b6040518060a0016040528060008019168152602001600073ffffffffffffffffffffffffffffffffffffffff16815260200160007bffffffffffffffffffffffffffffffffffffffffffffffffffffffff191681526020016000815260200161348961348f565b81525090565b604051806040016040528060608152602001600081525090565b6000813590506134b88161485a565b92915050565b6000815190506134cd81614871565b92915050565b6000813590506134e281614888565b92915050565b6000813590506134f78161489f565b92915050565b60008151905061350c8161489f565b92915050565b60006020828403121561352457600080fd5b6000613532848285016134a9565b91505092915050565b6000806040838503121561354e57600080fd5b600061355c858286016134a9565b925050602061356d858286016134a9565b9150509250929050565b60008060006060848603121561358c57600080fd5b600061359a868287016134a9565b93505060206135ab868287016134a9565b92505060406135bc868287016134e8565b9150509250925092565b600080604083850312156135d957600080fd5b60006135e7858286016134a9565b92505060206135f8858286016134e8565b9150509250929050565b60006020828403121561361457600080fd5b6000613622848285016134be565b91505092915050565b60008060006060848603121561364057600080fd5b600061364e868287016134d3565b935050602061365f868287016134e8565b9250506040613670868287016134e8565b9150509250925092565b60006020828403121561368c57600080fd5b600061369a848285016134fd565b91505092915050565b600080604083850312156136b657600080fd5b60006136c4858286016134e8565b92505060206136d5858286016134e8565b9150509250929050565b6136e8816141ce565b82525050565b6136f7816141e0565b82525050565b613706816141ec565b82525050565b613715816141f6565b82525050565b600061372682613f05565b6137308185613f1b565b935061374081856020860161427d565b613749816143ce565b840191505092915050565b61376561376082614259565b6142e2565b82525050565b600061377682613f10565b6137808185613f37565b935061379081856020860161427d565b613799816143ce565b840191505092915050565b60006137b1602383613f37565b91506137bc826143f9565b604082019050919050565b60006137d4602683613f37565b91506137df82614448565b604082019050919050565b60006137f7602283613f37565b915061380282614497565b604082019050919050565b600061381a601383613f37565b9150613825826144e6565b602082019050919050565b600061383d602383613f37565b91506138488261450f565b604082019050919050565b6000613860601d83613f37565b915061386b8261455e565b602082019050919050565b6000613883602683613f37565b915061388e82614587565b604082019050919050565b60006138a6601483613f37565b91506138b1826145d6565b602082019050919050565b60006138c9601b83613f37565b91506138d4826145ff565b602082019050919050565b60006138ec601383613f37565b91506138f782614628565b602082019050919050565b600061390f601283613f37565b915061391a82614651565b602082019050919050565b6000613932602083613f37565b915061393d8261467a565b602082019050919050565b6000613955602a83613f37565b9150613960826146a3565b604082019050919050565b6000613978602583613f37565b9150613983826146f2565b604082019050919050565b600061399b600083613f2c565b91506139a682614741565b600082019050919050565b60006139be602483613f37565b91506139c982614744565b604082019050919050565b60006139e1602883613f37565b91506139ec82614793565b604082019050919050565b6000613a04601c83613f37565b9150613a0f826147e2565b602082019050919050565b6000613a27602583613f37565b9150613a328261480b565b604082019050919050565b613a4681614242565b82525050565b613a5d613a5882614242565b614306565b82525050565b613a6c8161424c565b82525050565b6000613a7e8285613754565b601482019150613a8e8284613a4c565b6020820191508190509392505050565b6000613aa98261398e565b9150819050919050565b6000602082019050613ac860008301846136df565b92915050565b6000606082019050613ae360008301866136df565b613af060208301856136df565b613afd6040830184613a3d565b949350505050565b6000604082019050613b1a60008301856136df565b613b276020830184613a3d565b9392505050565b600061010082019050613b44600083018b6136df565b613b51602083018a613a3d565b613b5e60408301896136fd565b613b6b60608301886136df565b613b78608083018761370c565b613b8560a0830186613a3d565b613b9260c0830185613a3d565b81810360e0830152613ba4818461371b565b90509998505050505050505050565b6000606082019050613bc860008301866136df565b613bd56020830185613a3d565b8181036040830152613be7818461371b565b9050949350505050565b6000602082019050613c0660008301846136ee565b92915050565b60006020820190508181036000830152613c26818461376b565b905092915050565b60006020820190508181036000830152613c47816137a4565b9050919050565b60006020820190508181036000830152613c67816137c7565b9050919050565b60006020820190508181036000830152613c87816137ea565b9050919050565b60006020820190508181036000830152613ca781613830565b9050919050565b60006020820190508181036000830152613cc781613853565b9050919050565b60006020820190508181036000830152613ce781613876565b9050919050565b60006020820190508181036000830152613d0781613899565b9050919050565b60006020820190508181036000830152613d27816138bc565b9050919050565b60006020820190508181036000830152613d4781613902565b9050919050565b60006020820190508181036000830152613d6781613925565b9050919050565b60006020820190508181036000830152613d8781613948565b9050919050565b60006020820190508181036000830152613da78161396b565b9050919050565b60006020820190508181036000830152613dc7816139b1565b9050919050565b60006020820190508181036000830152613de7816139d4565b9050919050565b60006020820190508181036000830152613e07816139f7565b9050919050565b60006020820190508181036000830152613e2781613a1a565b9050919050565b6000602082019050613e436000830184613a3d565b92915050565b6000604082019050613e5e6000830185613a3d565b613e6b6020830184613a3d565b9392505050565b6000606082019050613e876000830185613a3d565b613e946020830184613a3d565b8181036040830152613ea58161380d565b90509392505050565b6000606082019050613ec36000830185613a3d565b613ed06020830184613a3d565b8181036040830152613ee1816138df565b90509392505050565b6000602082019050613eff6000830184613a63565b92915050565b600081519050919050565b600081519050919050565b600082825260208201905092915050565b600081905092915050565b600082825260208201905092915050565b6000613f5382614242565b9150613f5e83614242565b9250827fffffffffffffffffffffffffffffffffffffffffffffffffffffffffffffffff03821115613f9357613f92614341565b5b828201905092915050565b6000613fa982614242565b9150613fb483614242565b925082613fc457613fc3614370565b5b828204905092915050565b6000808291508390505b600185111561401957808604811115613ff557613ff4614341565b5b60018516156140045780820291505b8081029050614012856143ec565b9450613fd9565b94509492505050565b600061402d82614242565b915061403883614242565b92506140657fffffffffffffffffffffffffffffffffffffffffffffffffffffffffffffffff848461406d565b905092915050565b60008261407d5760019050614139565b8161408b5760009050614139565b81600181146140a157600281146140ab576140da565b6001915050614139565b60ff8411156140bd576140bc614341565b5b8360020a9150848211156140d4576140d3614341565b5b50614139565b5060208310610133831016604e8410600b841016171561410f5782820a90508381111561410a57614109614341565b5b614139565b61411c8484846001613fcf565b9250905081840481111561413357614132614341565b5b81810290505b9392505050565b600061414b82614242565b915061415683614242565b9250817fffffffffffffffffffffffffffffffffffffffffffffffffffffffffffffffff048311821515161561418f5761418e614341565b5b828202905092915050565b60006141a582614242565b91506141b083614242565b9250828210156141c3576141c2614341565b5b828203905092915050565b60006141d982614222565b9050919050565b60008115159050919050565b6000819050919050565b60007fffffffff0000000000000000000000000000000000000000000000000000000082169050919050565b600073ffffffffffffffffffffffffffffffffffffffff82169050919050565b6000819050919050565b600060ff82169050919050565b60006142648261426b565b9050919050565b600061427682614222565b9050919050565b60005b8381101561429b578082015181840152602081019050614280565b838111156142aa576000848401525b50505050565b600060028204905060018216806142c857607f821691505b602082108114156142dc576142db61439f565b5b50919050565b60006142ed826142f4565b9050919050565b60006142ff826143df565b9050919050565b6000819050919050565b600061431b82614242565b915061432683614242565b92508261433657614335614370565b5b828206905092915050565b7f4e487b7100000000000000000000000000000000000000000000000000000000600052601160045260246000fd5b7f4e487b7100000000000000000000000000000000000000000000000000000000600052601260045260246000fd5b7f4e487b7100000000000000000000000000000000000000000000000000000000600052602260045260246000fd5b6000601f19601f8301169050919050565b60008160601b9050919050565b60008160011c9050919050565b7f45524332303a207472616e7366657220746f20746865207a65726f206164647260008201527f6573730000000000000000000000000000000000000000000000000000000000602082015250565b7f4f776e61626c653a206e6577206f776e657220697320746865207a65726f206160008201527f6464726573730000000000000000000000000000000000000000000000000000602082015250565b7f45524332303a20617070726f766520746f20746865207a65726f20616464726560008201527f7373000000000000000000000000000000000000000000000000000000000000602082015250565b7f6465706f7369745f73776170425241746f465200000000000000000000000000600082015250565b7f756e61626c6520746f207472616e73666572416e6443616c6c20746f206f726160008201527f636c650000000000000000000000000000000000000000000000000000000000602082015250565b7f45524332303a20696e73756666696369656e7420616c6c6f77616e6365000000600082015250565b7f45524332303a207472616e7366657220616d6f756e742065786365656473206260008201527f616c616e63650000000000000000000000000000000000000000000000000000602082015250565b7f4661696c656420746f2073656e64204574686572000000000000000000000000600082015250565b7f546865206d61746368206973206e6f742066696e697368207965740000000000600082015250565b7f6465706f7369745f737761704652746f42524100000000000000000000000000600082015250565b7f556e61626c6520746f207472616e736665720000000000000000000000000000600082015250565b7f4f776e61626c653a2063616c6c6572206973206e6f7420746865206f776e6572600082015250565b7f5468657265206973206e6f7420456e6f75676874204d6174696320696e20746860008201527f6520436f6e747261637400000000000000000000000000000000000000000000602082015250565b7f45524332303a207472616e736665722066726f6d20746865207a65726f20616460008201527f6472657373000000000000000000000000000000000000000000000000000000602082015250565b50565b7f45524332303a20617070726f76652066726f6d20746865207a65726f2061646460008201527f7265737300000000000000000000000000000000000000000000000000000000602082015250565b7f536f75726365206d75737420626520746865206f7261636c65206f662074686560008201527f2072657175657374000000000000000000000000000000000000000000000000602082015250565b7f596f75206469646e27742070726f7669646520616e792066756e647300000000600082015250565b7f45524332303a2064656372656173656420616c6c6f77616e63652062656c6f7760008201527f207a65726f000000000000000000000000000000000000000000000000000000602082015250565b614863816141ce565b811461486e57600080fd5b50565b61487a816141e0565b811461488557600080fd5b50565b614891816141ec565b811461489c57600080fd5b50565b6148a881614242565b81146148b357600080fd5b5056fe68747470733a2f2f6170692e73706f727473646174612e696f2f76332f736f636365722f73636f7265732f6a736f6e2f47616d65734279446174652f323032322d31312d31353f6b65793d6135616363366363343464633437666339393138313938643239623333653030a2646970667358221220fbfa81e2d6c287b5b0d0ae27ee8c2b8372bb6a11300c914db18c8b521c61233264736f6c63430008040033",
  "linkReferences": {},
  "deployedLinkReferences": {}
}