{
  "_format": "hh-sol-artifact-1",
  "contractName": "Swap",
  "sourceName": "contracts/Swap.sol",
  "abi": [
    {
      "inputs": [
        {
          "internalType": "address",
          "name": "_FranceTokenAddress",
          "type": "address"
        },
        {
          "internalType": "address",
          "name": "_BrasilTokenAddress",
          "type": "address"
        }
      ],
      "stateMutability": "nonpayable",
      "type": "constructor"
    },
    {
      "anonymous": false,
      "inputs": [
        {
          "indexed": true,
          "internalType": "address",
          "name": "owner",
          "type": "address"
        },
        {
          "indexed": true,
          "internalType": "address",
          "name": "spender",
          "type": "address"
        },
        {
          "indexed": false,
          "internalType": "uint256",
          "name": "value",
          "type": "uint256"
        }
      ],
      "name": "Approval",
      "type": "event"
    },
    {
      "anonymous": false,
      "inputs": [
        {
          "indexed": true,
          "internalType": "address",
          "name": "previousOwner",
          "type": "address"
        },
        {
          "indexed": true,
          "internalType": "address",
          "name": "newOwner",
          "type": "address"
        }
      ],
      "name": "OwnershipTransferred",
      "type": "event"
    },
    {
      "anonymous": false,
      "inputs": [
        {
          "indexed": true,
          "internalType": "address",
          "name": "from",
          "type": "address"
        },
        {
          "indexed": true,
          "internalType": "address",
          "name": "to",
          "type": "address"
        },
        {
          "indexed": false,
          "internalType": "uint256",
          "name": "value",
          "type": "uint256"
        }
      ],
      "name": "Transfer",
      "type": "event"
    },
    {
      "inputs": [],
      "name": "BrasilTokenAddress",
      "outputs": [
        {
          "internalType": "address",
          "name": "",
          "type": "address"
        }
      ],
      "stateMutability": "view",
      "type": "function"
    },
    {
      "inputs": [],
      "name": "FinalResult",
      "outputs": [
        {
          "internalType": "uint256",
          "name": "",
          "type": "uint256"
        }
      ],
      "stateMutability": "view",
      "type": "function"
    },
    {
      "inputs": [],
      "name": "FranceTokenAddress",
      "outputs": [
        {
          "internalType": "address",
          "name": "",
          "type": "address"
        }
      ],
      "stateMutability": "view",
      "type": "function"
    },
    {
      "inputs": [
        {
          "internalType": "uint256",
          "name": "_amount",
          "type": "uint256"
        }
      ],
      "name": "addLiquidity",
      "outputs": [],
      "stateMutability": "nonpayable",
      "type": "function"
    },
    {
      "inputs": [
        {
          "internalType": "address",
          "name": "owner",
          "type": "address"
        },
        {
          "internalType": "address",
          "name": "spender",
          "type": "address"
        }
      ],
      "name": "allowance",
      "outputs": [
        {
          "internalType": "uint256",
          "name": "",
          "type": "uint256"
        }
      ],
      "stateMutability": "view",
      "type": "function"
    },
    {
      "inputs": [
        {
          "internalType": "address",
          "name": "spender",
          "type": "address"
        },
        {
          "internalType": "uint256",
          "name": "amount",
          "type": "uint256"
        }
      ],
      "name": "approve",
      "outputs": [
        {
          "internalType": "bool",
          "name": "",
          "type": "bool"
        }
      ],
      "stateMutability": "nonpayable",
      "type": "function"
    },
    {
      "inputs": [
        {
          "internalType": "address",
          "name": "account",
          "type": "address"
        }
      ],
      "name": "balanceOf",
      "outputs": [
        {
          "internalType": "uint256",
          "name": "",
          "type": "uint256"
        }
      ],
      "stateMutability": "view",
      "type": "function"
    },
    {
      "inputs": [],
      "name": "contractBalance",
      "outputs": [
        {
          "internalType": "uint256",
          "name": "",
          "type": "uint256"
        }
      ],
      "stateMutability": "view",
      "type": "function"
    },
    {
      "inputs": [],
      "name": "decimals",
      "outputs": [
        {
          "internalType": "uint8",
          "name": "",
          "type": "uint8"
        }
      ],
      "stateMutability": "view",
      "type": "function"
    },
    {
      "inputs": [
        {
          "internalType": "address",
          "name": "spender",
          "type": "address"
        },
        {
          "internalType": "uint256",
          "name": "subtractedValue",
          "type": "uint256"
        }
      ],
      "name": "decreaseAllowance",
      "outputs": [
        {
          "internalType": "bool",
          "name": "",
          "type": "bool"
        }
      ],
      "stateMutability": "nonpayable",
      "type": "function"
    },
    {
      "inputs": [],
      "name": "deposit",
      "outputs": [],
      "stateMutability": "payable",
      "type": "function"
    },
    {
      "inputs": [],
      "name": "gameOver",
      "outputs": [],
      "stateMutability": "nonpayable",
      "type": "function"
    },
    {
      "inputs": [],
      "name": "getBalanceWalletBrasil",
      "outputs": [
        {
          "internalType": "uint256",
          "name": "",
          "type": "uint256"
        }
      ],
      "stateMutability": "view",
      "type": "function"
    },
    {
      "inputs": [],
      "name": "getBalanceWalletFrance",
      "outputs": [
        {
          "internalType": "uint256",
          "name": "",
          "type": "uint256"
        }
      ],
      "stateMutability": "view",
      "type": "function"
    },
    {
      "inputs": [],
      "name": "getReserveBrasil",
      "outputs": [
        {
          "internalType": "uint256",
          "name": "",
          "type": "uint256"
        }
      ],
      "stateMutability": "view",
      "type": "function"
    },
    {
      "inputs": [],
      "name": "getReserveFrance",
      "outputs": [
        {
          "internalType": "uint256",
          "name": "",
          "type": "uint256"
        }
      ],
      "stateMutability": "view",
      "type": "function"
    },
    {
      "inputs": [
        {
          "internalType": "address",
          "name": "spender",
          "type": "address"
        },
        {
          "internalType": "uint256",
          "name": "addedValue",
          "type": "uint256"
        }
      ],
      "name": "increaseAllowance",
      "outputs": [
        {
          "internalType": "bool",
          "name": "",
          "type": "bool"
        }
      ],
      "stateMutability": "nonpayable",
      "type": "function"
    },
    {
      "inputs": [],
      "name": "name",
      "outputs": [
        {
          "internalType": "string",
          "name": "",
          "type": "string"
        }
      ],
      "stateMutability": "view",
      "type": "function"
    },
    {
      "inputs": [],
      "name": "ownTokenContracts",
      "outputs": [],
      "stateMutability": "nonpayable",
      "type": "function"
    },
    {
      "inputs": [],
      "name": "owner",
      "outputs": [
        {
          "internalType": "address",
          "name": "",
          "type": "address"
        }
      ],
      "stateMutability": "view",
      "type": "function"
    },
    {
      "inputs": [],
      "name": "removeLiquidity",
      "outputs": [],
      "stateMutability": "nonpayable",
      "type": "function"
    },
    {
      "inputs": [],
      "name": "renounceOwnership",
      "outputs": [],
      "stateMutability": "nonpayable",
      "type": "function"
    },
    {
      "inputs": [
        {
          "internalType": "uint256",
          "name": "_winner",
          "type": "uint256"
        }
      ],
      "name": "setFinalResult",
      "outputs": [],
      "stateMutability": "nonpayable",
      "type": "function"
    },
    {
      "inputs": [
        {
          "internalType": "uint256",
          "name": "_braAmount",
          "type": "uint256"
        }
      ],
      "name": "swapBRAtoFR",
      "outputs": [],
      "stateMutability": "nonpayable",
      "type": "function"
    },
    {
      "inputs": [
        {
          "internalType": "uint256",
          "name": "_frAmount",
          "type": "uint256"
        }
      ],
      "name": "swapFRtoBRA",
      "outputs": [],
      "stateMutability": "nonpayable",
      "type": "function"
    },
    {
      "inputs": [],
      "name": "symbol",
      "outputs": [
        {
          "internalType": "string",
          "name": "",
          "type": "string"
        }
      ],
      "stateMutability": "view",
      "type": "function"
    },
    {
      "inputs": [],
      "name": "totalSupply",
      "outputs": [
        {
          "internalType": "uint256",
          "name": "",
          "type": "uint256"
        }
      ],
      "stateMutability": "view",
      "type": "function"
    },
    {
      "inputs": [
        {
          "internalType": "address",
          "name": "to",
          "type": "address"
        },
        {
          "internalType": "uint256",
          "name": "amount",
          "type": "uint256"
        }
      ],
      "name": "transfer",
      "outputs": [
        {
          "internalType": "bool",
          "name": "",
          "type": "bool"
        }
      ],
      "stateMutability": "nonpayable",
      "type": "function"
    },
    {
      "inputs": [
        {
          "internalType": "address",
          "name": "from",
          "type": "address"
        },
        {
          "internalType": "address",
          "name": "to",
          "type": "address"
        },
        {
          "internalType": "uint256",
          "name": "amount",
          "type": "uint256"
        }
      ],
      "name": "transferFrom",
      "outputs": [
        {
          "internalType": "bool",
          "name": "",
          "type": "bool"
        }
      ],
      "stateMutability": "nonpayable",
      "type": "function"
    },
    {
      "inputs": [
        {
          "internalType": "address",
          "name": "newOwner",
          "type": "address"
        }
      ],
      "name": "transferOwnership",
      "outputs": [],
      "stateMutability": "nonpayable",
      "type": "function"
    },
    {
      "inputs": [],
      "name": "walletBalance",
      "outputs": [
        {
          "internalType": "uint256",
          "name": "",
          "type": "uint256"
        }
      ],
      "stateMutability": "view",
      "type": "function"
    }
  ],
  "bytecode": "0x608060405260016008553480156200001657600080fd5b506040516200325c3803806200325c83398181016040528101906200003c91906200031b565b6040518060400160405280600f81526020017f4c697175696469747920546f6b656e00000000000000000000000000000000008152506040518060400160405280600381526020017f4c505400000000000000000000000000000000000000000000000000000000008152508160039080519060200190620000c092919062000254565b508060049080519060200190620000d992919062000254565b505050620000fc620000f06200018660201b60201c565b6200018e60201b60201c565b81600660006101000a81548173ffffffffffffffffffffffffffffffffffffffff021916908373ffffffffffffffffffffffffffffffffffffffff16021790555080600760006101000a81548173ffffffffffffffffffffffffffffffffffffffff021916908373ffffffffffffffffffffffffffffffffffffffff16021790555050506200040f565b600033905090565b6000600560009054906101000a900473ffffffffffffffffffffffffffffffffffffffff16905081600560006101000a81548173ffffffffffffffffffffffffffffffffffffffff021916908373ffffffffffffffffffffffffffffffffffffffff1602179055508173ffffffffffffffffffffffffffffffffffffffff168173ffffffffffffffffffffffffffffffffffffffff167f8be0079c531659141344cd1fd0a4f28419497f9722a3daafe3b4186f6b6457e060405160405180910390a35050565b828054620002629062000390565b90600052602060002090601f016020900481019282620002865760008555620002d2565b82601f10620002a157805160ff1916838001178555620002d2565b82800160010185558215620002d2579182015b82811115620002d1578251825591602001919060010190620002b4565b5b509050620002e19190620002e5565b5090565b5b8082111562000300576000816000905550600101620002e6565b5090565b6000815190506200031581620003f5565b92915050565b600080604083850312156200032f57600080fd5b60006200033f8582860162000304565b9250506020620003528582860162000304565b9150509250929050565b6000620003698262000370565b9050919050565b600073ffffffffffffffffffffffffffffffffffffffff82169050919050565b60006002820490506001821680620003a957607f821691505b60208210811415620003c057620003bf620003c6565b5b50919050565b7f4e487b7100000000000000000000000000000000000000000000000000000000600052602260045260246000fd5b62000400816200035c565b81146200040c57600080fd5b50565b612e3d806200041f6000396000f3fe6080604052600436106101d85760003560e01c80638b7afe2e11610102578063cd0a314b11610095578063dd62ed3e11610064578063dd62ed3e1461065b578063f02ca4f914610698578063f2fde38b146106c1578063fa4be622146106ea576101d8565b8063cd0a314b146105d2578063d0e30db0146105fd578063d1d6a2d614610607578063d5f516e314610632576101d8565b8063a457c2d7116100d1578063a457c2d714610516578063a9059cbb14610553578063b3af312414610590578063bdb337d1146105bb576101d8565b80638b7afe2e1461046a5780638da5cb5b1461049557806394b3886c146104c057806395d89b41146104eb576101d8565b80633a3af1701161017a57806367b9a2861161014957806367b9a286146103d65780636dd31652146103ed57806370a0823114610416578063715018a614610453576101d8565b80633a3af17014610340578063422f8edf1461036b5780634795db521461038257806351c6590a146103ad576101d8565b806323b872dd116101b657806323b872dd14610270578063313ce567146102ad57806334a5462c146102d85780633950935114610303576101d8565b806306fdde03146101dd578063095ea7b31461020857806318160ddd14610245575b600080fd5b3480156101e957600080fd5b506101f2610715565b6040516101ff91906125ee565b60405180910390f35b34801561021457600080fd5b5061022f600480360381019061022a919061222d565b6107a7565b60405161023c91906125d3565b60405180910390f35b34801561025157600080fd5b5061025a6107ca565b60405161026791906127b0565b60405180910390f35b34801561027c57600080fd5b50610297600480360381019061029291906121de565b6107d4565b6040516102a491906125d3565b60405180910390f35b3480156102b957600080fd5b506102c2610803565b6040516102cf91906127cb565b60405180910390f35b3480156102e457600080fd5b506102ed61080c565b6040516102fa91906127b0565b60405180910390f35b34801561030f57600080fd5b5061032a6004803603810190610325919061222d565b610812565b60405161033791906125d3565b60405180910390f35b34801561034c57600080fd5b50610355610849565b60405161036291906127b0565b60405180910390f35b34801561037757600080fd5b50610380610900565b005b34801561038e57600080fd5b50610397610a0e565b6040516103a491906127b0565b60405180910390f35b3480156103b957600080fd5b506103d460048036038101906103cf9190612292565b610ac5565b005b3480156103e257600080fd5b506103eb610c34565b005b3480156103f957600080fd5b50610414600480360381019061040f9190612292565b610dac565b005b34801561042257600080fd5b5061043d60048036038101906104389190612179565b610f5d565b60405161044a91906127b0565b60405180910390f35b34801561045f57600080fd5b50610468610fa5565b005b34801561047657600080fd5b5061047f610fb9565b60405161048c91906127b0565b60405180910390f35b3480156104a157600080fd5b506104aa610fc1565b6040516104b79190612558565b60405180910390f35b3480156104cc57600080fd5b506104d5610feb565b6040516104e291906127b0565b60405180910390f35b3480156104f757600080fd5b506105006110a2565b60405161050d91906125ee565b60405180910390f35b34801561052257600080fd5b5061053d6004803603810190610538919061222d565b611134565b60405161054a91906125d3565b60405180910390f35b34801561055f57600080fd5b5061057a6004803603810190610575919061222d565b6111ab565b60405161058791906125d3565b60405180910390f35b34801561059c57600080fd5b506105a56111ce565b6040516105b29190612558565b60405180910390f35b3480156105c757600080fd5b506105d06111f4565b005b3480156105de57600080fd5b506105e76115d2565b6040516105f491906127b0565b60405180910390f35b6106056115f1565b005b34801561061357600080fd5b5061061c611754565b60405161062991906127b0565b60405180910390f35b34801561063e57600080fd5b5061065960048036038101906106549190612292565b61180b565b005b34801561066757600080fd5b50610682600480360381019061067d91906121a2565b611815565b60405161068f91906127b0565b60405180910390f35b3480156106a457600080fd5b506106bf60048036038101906106ba9190612292565b61189c565b005b3480156106cd57600080fd5b506106e860048036038101906106e39190612179565b611a4d565b005b3480156106f657600080fd5b506106ff611ad1565b60405161070c9190612558565b60405180910390f35b606060038054610724906129aa565b80601f0160208091040260200160405190810160405280929190818152602001828054610750906129aa565b801561079d5780601f106107725761010080835404028352916020019161079d565b820191906000526020600020905b81548152906001019060200180831161078057829003601f168201915b5050505050905090565b6000806107b2611af7565b90506107bf818585611aff565b600191505092915050565b6000600254905090565b6000806107df611af7565b90506107ec858285611cca565b6107f7858585611d56565b60019150509392505050565b60006012905090565b60085481565b60008061081d611af7565b905061083e81858561082f8589611815565b610839919061280d565b611aff565b600191505092915050565b600080600760009054906101000a900473ffffffffffffffffffffffffffffffffffffffff1673ffffffffffffffffffffffffffffffffffffffff166370a08231306040518263ffffffff1660e01b81526004016108a79190612558565b60206040518083038186803b1580156108bf57600080fd5b505afa1580156108d3573d6000803e3d6000fd5b505050506040513d601f19601f820116820180604052508101906108f791906122bb565b90508091505090565b610908611fd7565b600660009054906101000a900473ffffffffffffffffffffffffffffffffffffffff1673ffffffffffffffffffffffffffffffffffffffff166398faf2cb6040518163ffffffff1660e01b8152600401600060405180830381600087803b15801561097257600080fd5b505af1158015610986573d6000803e3d6000fd5b50505050600760009054906101000a900473ffffffffffffffffffffffffffffffffffffffff1673ffffffffffffffffffffffffffffffffffffffff166398faf2cb6040518163ffffffff1660e01b8152600401600060405180830381600087803b1580156109f457600080fd5b505af1158015610a08573d6000803e3d6000fd5b50505050565b600080600660009054906101000a900473ffffffffffffffffffffffffffffffffffffffff1673ffffffffffffffffffffffffffffffffffffffff166370a08231336040518263ffffffff1660e01b8152600401610a6c9190612558565b60206040518083038186803b158015610a8457600080fd5b505afa158015610a98573d6000803e3d6000fd5b505050506040513d601f19601f82011682018060405250810190610abc91906122bb565b90508091505090565b610acd611fd7565b600660009054906101000a900473ffffffffffffffffffffffffffffffffffffffff1673ffffffffffffffffffffffffffffffffffffffff166323b872dd3330846040518463ffffffff1660e01b8152600401610b2c93929190612573565b602060405180830381600087803b158015610b4657600080fd5b505af1158015610b5a573d6000803e3d6000fd5b505050506040513d601f19601f82011682018060405250810190610b7e9190612269565b50600760009054906101000a900473ffffffffffffffffffffffffffffffffffffffff1673ffffffffffffffffffffffffffffffffffffffff166323b872dd3330846040518463ffffffff1660e01b8152600401610bde93929190612573565b602060405180830381600087803b158015610bf857600080fd5b505af1158015610c0c573d6000803e3d6000fd5b505050506040513d601f19601f82011682018060405250810190610c309190612269565b5050565b610c3c611fd7565b600760009054906101000a900473ffffffffffffffffffffffffffffffffffffffff1673ffffffffffffffffffffffffffffffffffffffff1663a9059cbb33610c83610849565b6040518363ffffffff1660e01b8152600401610ca09291906125aa565b602060405180830381600087803b158015610cba57600080fd5b505af1158015610cce573d6000803e3d6000fd5b505050506040513d601f19601f82011682018060405250810190610cf29190612269565b50600660009054906101000a900473ffffffffffffffffffffffffffffffffffffffff1673ffffffffffffffffffffffffffffffffffffffff1663a9059cbb33610d3a610feb565b6040518363ffffffff1660e01b8152600401610d579291906125aa565b602060405180830381600087803b158015610d7157600080fd5b505af1158015610d85573d6000803e3d6000fd5b505050506040513d601f19601f82011682018060405250810190610da99190612269565b50565b600660009054906101000a900473ffffffffffffffffffffffffffffffffffffffff1673ffffffffffffffffffffffffffffffffffffffff166323b872dd3330846040518463ffffffff1660e01b8152600401610e0b93929190612573565b602060405180830381600087803b158015610e2557600080fd5b505af1158015610e39573d6000803e3d6000fd5b505050506040513d601f19601f82011682018060405250810190610e5d9190612269565b506000610e68610849565b9050600082610e75610feb565b610e7f91906128ee565b905060008382610e8f919061280d565b8385610e9b9190612894565b610ea59190612863565b9050600760009054906101000a900473ffffffffffffffffffffffffffffffffffffffff1673ffffffffffffffffffffffffffffffffffffffff1663a9059cbb33836040518363ffffffff1660e01b8152600401610f049291906125aa565b602060405180830381600087803b158015610f1e57600080fd5b505af1158015610f32573d6000803e3d6000fd5b505050506040513d601f19601f82011682018060405250810190610f569190612269565b5050505050565b60008060008373ffffffffffffffffffffffffffffffffffffffff1673ffffffffffffffffffffffffffffffffffffffff168152602001908152602001600020549050919050565b610fad611fd7565b610fb76000612055565b565b600047905090565b6000600560009054906101000a900473ffffffffffffffffffffffffffffffffffffffff16905090565b600080600660009054906101000a900473ffffffffffffffffffffffffffffffffffffffff1673ffffffffffffffffffffffffffffffffffffffff166370a08231306040518263ffffffff1660e01b81526004016110499190612558565b60206040518083038186803b15801561106157600080fd5b505afa158015611075573d6000803e3d6000fd5b505050506040513d601f19601f8201168201806040525081019061109991906122bb565b90508091505090565b6060600480546110b1906129aa565b80601f01602080910402602001604051908101604052809291908181526020018280546110dd906129aa565b801561112a5780601f106110ff5761010080835404028352916020019161112a565b820191906000526020600020905b81548152906001019060200180831161110d57829003601f168201915b5050505050905090565b60008061113f611af7565b9050600061114d8286611815565b905083811015611192576040517f08c379a000000000000000000000000000000000000000000000000000000000815260040161118990612790565b60405180910390fd5b61119f8286868403611aff565b60019250505092915050565b6000806111b6611af7565b90506111c3818585611d56565b600191505092915050565b600760009054906101000a900473ffffffffffffffffffffffffffffffffffffffff1681565b600060085411611239576040517f08c379a0000000000000000000000000000000000000000000000000000000008152600401611230906126d0565b60405180910390fd5b6000611243610a0e565b9050600061124f611754565b90506001600854141561141157611264610fb9565b8210156112a6576040517f08c379a000000000000000000000000000000000000000000000000000000000815260040161129d90612710565b60405180910390fd5b600660009054906101000a900473ffffffffffffffffffffffffffffffffffffffff1673ffffffffffffffffffffffffffffffffffffffff166323b872dd3330856040518463ffffffff1660e01b815260040161130593929190612573565b602060405180830381600087803b15801561131f57600080fd5b505af1158015611333573d6000803e3d6000fd5b505050506040513d601f19601f820116820180604052508101906113579190612269565b5060003373ffffffffffffffffffffffffffffffffffffffff16611379610fb9565b60405161138590612543565b60006040518083038185875af1925050503d80600081146113c2576040519150601f19603f3d011682016040523d82523d6000602084013e6113c7565b606091505b505090508061140b576040517f08c379a0000000000000000000000000000000000000000000000000000000008152600401611402906126b0565b60405180910390fd5b506115ce565b600360085414156115cd57611424610fb9565b811015611466576040517f08c379a000000000000000000000000000000000000000000000000000000000815260040161145d90612710565b60405180910390fd5b600760009054906101000a900473ffffffffffffffffffffffffffffffffffffffff1673ffffffffffffffffffffffffffffffffffffffff166323b872dd3330846040518463ffffffff1660e01b81526004016114c593929190612573565b602060405180830381600087803b1580156114df57600080fd5b505af11580156114f3573d6000803e3d6000fd5b505050506040513d601f19601f820116820180604052508101906115179190612269565b5060003373ffffffffffffffffffffffffffffffffffffffff16611539610fb9565b60405161154590612543565b60006040518083038185875af1925050503d8060008114611582576040519150601f19603f3d011682016040523d82523d6000602084013e611587565b606091505b50509050806115cb576040517f08c379a00000000000000000000000000000000000000000000000000000000081526004016115c2906126b0565b60405180910390fd5b505b5b5050565b60003373ffffffffffffffffffffffffffffffffffffffff1631905090565b60003411611634576040517f08c379a000000000000000000000000000000000000000000000000000000000815260040161162b90612770565b60405180910390fd5b600660009054906101000a900473ffffffffffffffffffffffffffffffffffffffff1673ffffffffffffffffffffffffffffffffffffffff166340c10f1933346040518363ffffffff1660e01b81526004016116919291906125aa565b600060405180830381600087803b1580156116ab57600080fd5b505af11580156116bf573d6000803e3d6000fd5b50505050600760009054906101000a900473ffffffffffffffffffffffffffffffffffffffff1673ffffffffffffffffffffffffffffffffffffffff166340c10f1933346040518363ffffffff1660e01b81526004016117209291906125aa565b600060405180830381600087803b15801561173a57600080fd5b505af115801561174e573d6000803e3d6000fd5b50505050565b600080600760009054906101000a900473ffffffffffffffffffffffffffffffffffffffff1673ffffffffffffffffffffffffffffffffffffffff166370a08231336040518263ffffffff1660e01b81526004016117b29190612558565b60206040518083038186803b1580156117ca57600080fd5b505afa1580156117de573d6000803e3d6000fd5b505050506040513d601f19601f8201168201806040525081019061180291906122bb565b90508091505090565b8060088190555050565b6000600160008473ffffffffffffffffffffffffffffffffffffffff1673ffffffffffffffffffffffffffffffffffffffff16815260200190815260200160002060008373ffffffffffffffffffffffffffffffffffffffff1673ffffffffffffffffffffffffffffffffffffffff16815260200190815260200160002054905092915050565b600760009054906101000a900473ffffffffffffffffffffffffffffffffffffffff1673ffffffffffffffffffffffffffffffffffffffff166323b872dd3330846040518463ffffffff1660e01b81526004016118fb93929190612573565b602060405180830381600087803b15801561191557600080fd5b505af1158015611929573d6000803e3d6000fd5b505050506040513d601f19601f8201168201806040525081019061194d9190612269565b506000611958610feb565b9050600082611965610849565b61196f91906128ee565b90506000838261197f919061280d565b838561198b9190612894565b6119959190612863565b9050600660009054906101000a900473ffffffffffffffffffffffffffffffffffffffff1673ffffffffffffffffffffffffffffffffffffffff1663a9059cbb33836040518363ffffffff1660e01b81526004016119f49291906125aa565b602060405180830381600087803b158015611a0e57600080fd5b505af1158015611a22573d6000803e3d6000fd5b505050506040513d601f19601f82011682018060405250810190611a469190612269565b5050505050565b611a55611fd7565b600073ffffffffffffffffffffffffffffffffffffffff168173ffffffffffffffffffffffffffffffffffffffff161415611ac5576040517f08c379a0000000000000000000000000000000000000000000000000000000008152600401611abc90612630565b60405180910390fd5b611ace81612055565b50565b600660009054906101000a900473ffffffffffffffffffffffffffffffffffffffff1681565b600033905090565b600073ffffffffffffffffffffffffffffffffffffffff168373ffffffffffffffffffffffffffffffffffffffff161415611b6f576040517f08c379a0000000000000000000000000000000000000000000000000000000008152600401611b6690612750565b60405180910390fd5b600073ffffffffffffffffffffffffffffffffffffffff168273ffffffffffffffffffffffffffffffffffffffff161415611bdf576040517f08c379a0000000000000000000000000000000000000000000000000000000008152600401611bd690612650565b60405180910390fd5b80600160008573ffffffffffffffffffffffffffffffffffffffff1673ffffffffffffffffffffffffffffffffffffffff16815260200190815260200160002060008473ffffffffffffffffffffffffffffffffffffffff1673ffffffffffffffffffffffffffffffffffffffff168152602001908152602001600020819055508173ffffffffffffffffffffffffffffffffffffffff168373ffffffffffffffffffffffffffffffffffffffff167f8c5be1e5ebec7d5bd14f71427d1e84f3dd0314c0f7b2291e5b200ac8c7c3b92583604051611cbd91906127b0565b60405180910390a3505050565b6000611cd68484611815565b90507fffffffffffffffffffffffffffffffffffffffffffffffffffffffffffffffff8114611d505781811015611d42576040517f08c379a0000000000000000000000000000000000000000000000000000000008152600401611d3990612670565b60405180910390fd5b611d4f8484848403611aff565b5b50505050565b600073ffffffffffffffffffffffffffffffffffffffff168373ffffffffffffffffffffffffffffffffffffffff161415611dc6576040517f08c379a0000000000000000000000000000000000000000000000000000000008152600401611dbd90612730565b60405180910390fd5b600073ffffffffffffffffffffffffffffffffffffffff168273ffffffffffffffffffffffffffffffffffffffff161415611e36576040517f08c379a0000000000000000000000000000000000000000000000000000000008152600401611e2d90612610565b60405180910390fd5b611e4183838361211b565b60008060008573ffffffffffffffffffffffffffffffffffffffff1673ffffffffffffffffffffffffffffffffffffffff16815260200190815260200160002054905081811015611ec7576040517f08c379a0000000000000000000000000000000000000000000000000000000008152600401611ebe90612690565b60405180910390fd5b8181036000808673ffffffffffffffffffffffffffffffffffffffff1673ffffffffffffffffffffffffffffffffffffffff16815260200190815260200160002081905550816000808573ffffffffffffffffffffffffffffffffffffffff1673ffffffffffffffffffffffffffffffffffffffff1681526020019081526020016000206000828254611f5a919061280d565b925050819055508273ffffffffffffffffffffffffffffffffffffffff168473ffffffffffffffffffffffffffffffffffffffff167fddf252ad1be2c89b69c2b068fc378daa952ba7f163c4a11628f55a4df523b3ef84604051611fbe91906127b0565b60405180910390a3611fd1848484612120565b50505050565b611fdf611af7565b73ffffffffffffffffffffffffffffffffffffffff16611ffd610fc1565b73ffffffffffffffffffffffffffffffffffffffff1614612053576040517f08c379a000000000000000000000000000000000000000000000000000000000815260040161204a906126f0565b60405180910390fd5b565b6000600560009054906101000a900473ffffffffffffffffffffffffffffffffffffffff16905081600560006101000a81548173ffffffffffffffffffffffffffffffffffffffff021916908373ffffffffffffffffffffffffffffffffffffffff1602179055508173ffffffffffffffffffffffffffffffffffffffff168173ffffffffffffffffffffffffffffffffffffffff167f8be0079c531659141344cd1fd0a4f28419497f9722a3daafe3b4186f6b6457e060405160405180910390a35050565b505050565b505050565b60008135905061213481612dc2565b92915050565b60008151905061214981612dd9565b92915050565b60008135905061215e81612df0565b92915050565b60008151905061217381612df0565b92915050565b60006020828403121561218b57600080fd5b600061219984828501612125565b91505092915050565b600080604083850312156121b557600080fd5b60006121c385828601612125565b92505060206121d485828601612125565b9150509250929050565b6000806000606084860312156121f357600080fd5b600061220186828701612125565b935050602061221286828701612125565b92505060406122238682870161214f565b9150509250925092565b6000806040838503121561224057600080fd5b600061224e85828601612125565b925050602061225f8582860161214f565b9150509250929050565b60006020828403121561227b57600080fd5b60006122898482850161213a565b91505092915050565b6000602082840312156122a457600080fd5b60006122b28482850161214f565b91505092915050565b6000602082840312156122cd57600080fd5b60006122db84828501612164565b91505092915050565b6122ed81612922565b82525050565b6122fc81612934565b82525050565b600061230d826127e6565b61231781856127fc565b9350612327818560208601612977565b61233081612a69565b840191505092915050565b60006123486023836127fc565b915061235382612a7a565b604082019050919050565b600061236b6026836127fc565b915061237682612ac9565b604082019050919050565b600061238e6022836127fc565b915061239982612b18565b604082019050919050565b60006123b1601d836127fc565b91506123bc82612b67565b602082019050919050565b60006123d46026836127fc565b91506123df82612b90565b604082019050919050565b60006123f76014836127fc565b915061240282612bdf565b602082019050919050565b600061241a601b836127fc565b915061242582612c08565b602082019050919050565b600061243d6020836127fc565b915061244882612c31565b602082019050919050565b6000612460602a836127fc565b915061246b82612c5a565b604082019050919050565b60006124836025836127fc565b915061248e82612ca9565b604082019050919050565b60006124a66000836127f1565b91506124b182612cf8565b600082019050919050565b60006124c96024836127fc565b91506124d482612cfb565b604082019050919050565b60006124ec601c836127fc565b91506124f782612d4a565b602082019050919050565b600061250f6025836127fc565b915061251a82612d73565b604082019050919050565b61252e81612960565b82525050565b61253d8161296a565b82525050565b600061254e82612499565b9150819050919050565b600060208201905061256d60008301846122e4565b92915050565b600060608201905061258860008301866122e4565b61259560208301856122e4565b6125a26040830184612525565b949350505050565b60006040820190506125bf60008301856122e4565b6125cc6020830184612525565b9392505050565b60006020820190506125e860008301846122f3565b92915050565b600060208201905081810360008301526126088184612302565b905092915050565b600060208201905081810360008301526126298161233b565b9050919050565b600060208201905081810360008301526126498161235e565b9050919050565b6000602082019050818103600083015261266981612381565b9050919050565b60006020820190508181036000830152612689816123a4565b9050919050565b600060208201905081810360008301526126a9816123c7565b9050919050565b600060208201905081810360008301526126c9816123ea565b9050919050565b600060208201905081810360008301526126e98161240d565b9050919050565b6000602082019050818103600083015261270981612430565b9050919050565b6000602082019050818103600083015261272981612453565b9050919050565b6000602082019050818103600083015261274981612476565b9050919050565b60006020820190508181036000830152612769816124bc565b9050919050565b60006020820190508181036000830152612789816124df565b9050919050565b600060208201905081810360008301526127a981612502565b9050919050565b60006020820190506127c56000830184612525565b92915050565b60006020820190506127e06000830184612534565b92915050565b600081519050919050565b600081905092915050565b600082825260208201905092915050565b600061281882612960565b915061282383612960565b9250827fffffffffffffffffffffffffffffffffffffffffffffffffffffffffffffffff03821115612858576128576129dc565b5b828201905092915050565b600061286e82612960565b915061287983612960565b92508261288957612888612a0b565b5b828204905092915050565b600061289f82612960565b91506128aa83612960565b9250817fffffffffffffffffffffffffffffffffffffffffffffffffffffffffffffffff04831182151516156128e3576128e26129dc565b5b828202905092915050565b60006128f982612960565b915061290483612960565b925082821015612917576129166129dc565b5b828203905092915050565b600061292d82612940565b9050919050565b60008115159050919050565b600073ffffffffffffffffffffffffffffffffffffffff82169050919050565b6000819050919050565b600060ff82169050919050565b60005b8381101561299557808201518184015260208101905061297a565b838111156129a4576000848401525b50505050565b600060028204905060018216806129c257607f821691505b602082108114156129d6576129d5612a3a565b5b50919050565b7f4e487b7100000000000000000000000000000000000000000000000000000000600052601160045260246000fd5b7f4e487b7100000000000000000000000000000000000000000000000000000000600052601260045260246000fd5b7f4e487b7100000000000000000000000000000000000000000000000000000000600052602260045260246000fd5b6000601f19601f8301169050919050565b7f45524332303a207472616e7366657220746f20746865207a65726f206164647260008201527f6573730000000000000000000000000000000000000000000000000000000000602082015250565b7f4f776e61626c653a206e6577206f776e657220697320746865207a65726f206160008201527f6464726573730000000000000000000000000000000000000000000000000000602082015250565b7f45524332303a20617070726f766520746f20746865207a65726f20616464726560008201527f7373000000000000000000000000000000000000000000000000000000000000602082015250565b7f45524332303a20696e73756666696369656e7420616c6c6f77616e6365000000600082015250565b7f45524332303a207472616e7366657220616d6f756e742065786365656473206260008201527f616c616e63650000000000000000000000000000000000000000000000000000602082015250565b7f4661696c656420746f2073656e64204574686572000000000000000000000000600082015250565b7f546865206d61746368206973206e6f742066696e697368207965740000000000600082015250565b7f4f776e61626c653a2063616c6c6572206973206e6f7420746865206f776e6572600082015250565b7f5468657265206973206e6f7420456e6f75676874204d6174696320696e20746860008201527f6520436f6e747261637400000000000000000000000000000000000000000000602082015250565b7f45524332303a207472616e736665722066726f6d20746865207a65726f20616460008201527f6472657373000000000000000000000000000000000000000000000000000000602082015250565b50565b7f45524332303a20617070726f76652066726f6d20746865207a65726f2061646460008201527f7265737300000000000000000000000000000000000000000000000000000000602082015250565b7f596f75206469646e27742070726f7669646520616e792066756e647300000000600082015250565b7f45524332303a2064656372656173656420616c6c6f77616e63652062656c6f7760008201527f207a65726f000000000000000000000000000000000000000000000000000000602082015250565b612dcb81612922565b8114612dd657600080fd5b50565b612de281612934565b8114612ded57600080fd5b50565b612df981612960565b8114612e0457600080fd5b5056fea264697066735822122077a963a49f9ce237a50ffa213546cdbc54270ffc84a4ed80271cfbcbe2dc200864736f6c63430008040033",
  "linkReferences": {},
  "deployedLinkReferences": {}
}